:100000000C9435000C945D000C945D000C945D0024
:100010000C945D000C945D000C945D000C945D00EC
:100020000C945D000C945D000C945D000C945D00DC
:100030000C945D000C945D000C945D000C945D00CC
:100040000C941E040C945D000C94EC030C94C603F9
:100050000C945D000C945D000C945D000C945D00AC
:100060000C945D000C945D00FD0611241FBECFEFC3
:10007000D8E0DEBFCDBF11E0A0E0B1E0EAE9F5E1F4
:1000800002C005900D92A633B107D9F721E0A6E38F
:10009000B1E001C01D92A53EB207E1F710E0C5E353
:1000A000D0E004C02197FE010E942A07C433D10783
:1000B000C9F70E9468040C94CB0A0C940000AF921C
:1000C000BF92CF92DF92EF92FF920F931F93CF9345
:1000D000DF936C017B018B01040F151FEB015E01A7
:1000E000AE18BF08C017D10759F06991D601ED913C
:1000F000FC910190F081E02DC6010995892B79F7DB
:10010000C501DF91CF911F910F91FF90EF90DF908C
:10011000CF90BF90AF900895FC01538D448D252F53
:1001200030E0842F90E0821B930B541710F0CF9691
:10013000089501970895FC01918D828D981761F0C3
:10014000A28DAE0FBF2FB11D5D968C91928D9F5FDA
:100150009F73928F90E008958FEF9FEF0895FC01B9
:10016000918D828D981731F0828DE80FF11D858D6C
:1001700090E008958FEF9FEF08952FB7F894809146
:10018000440190914501A0914601B09147012FBFD4
:100190008093500190935101A0935201B093530169
:1001A00088E491E00E94AF0097FF26C02FB7F89433
:1001B0008091440190914501A0914601B091470181
:1001C0002FBF4091500150915101609152017091A7
:1001D0005301841B950BA60BB70B40914C0150911A
:1001E0004D0160914E0170914F0184179507A6074C
:1001F000B707B0F28FEF9FEF08958F929F92AF9263
:10020000BF92CF92DF92EF92FF92CF93DF930E9443
:10021000BD00FC0197FD88C08D32910509F04CC0EE
:10022000812C912C80E8A82E8FE3B82EC12CD12CE4
:100230007601C0E0D0E0E130F10559F1ED32F10591
:1002400009F447C0EE32F10509F445C0CF01C0976B
:100250000A97F8F4AAE0B0E0A70196010E941709F6
:100260006F01FF0FEE08FF08C60ED71EE81EF91E2D
:1002700080E3C81AD108E108F108CC2351F02DEC35
:100280003CEC4CEC5DE3C501B4010E943A084B0123
:100290005C0188E491E00E949B000E94BD00FC018B
:1002A000C0970A9740F2EE32F105B9F4CC2319F267
:1002B000CD2FD11118C025C0C0970A9708F4B0CF30
:1002C000EE32F10509F4ACCF88E491E00E949B0086
:1002D0009ECFD1E0DECFC1E0DCCFE130F10509F403
:1002E000AACFDD2341F0F094E094D094C094C11CD7
:1002F000D11CE11CF11CC701B6010E94DB07CC2315
:1003000041F0C701B6010E94DB07A50194010E94DC
:100310003A08DF91CF91FF90EF90DF90CF90BF90A0
:10032000AF909F908F90089560E070E0CB01F1CF87
:10033000FC01918D228D892F90E0805C9F4F821B64
:1003400091098F739927089588E491E00E9498019C
:1003500021E0892B09F420E0822F089580E090E0CD
:10036000892B29F00E94A40181110C9400000895AA
:10037000FC01A48DA80FB92FB11DA35ABF4F2C911A
:10038000848D90E001968F739927848FA689B78911
:100390002C93A089B1898C9180648C93938D848DEA
:1003A000981306C00288F389E02D80818F7D8083B9
:1003B0000895EF92FF920F931F93CF93DF93EC0179
:1003C000F62E81E0888F9B8D8C8D981316C0E8895E
:1003D000F989808185FF11C0EE89FF896083E889F2
:1003E000F98980818064808381E090E0DF91CF9102
:1003F0001F910F91FF90EF9008950B8D10E00F5F0C
:100400001F4F0F731127E02E8C8D8E110CC00FB66D
:1004100007FCFACFE889F989808185FFF5CFCE0105
:100420000E94B801F1CFEB8DEC0FFD2FF11DE35AC7
:10043000FF4FF0820B8FEA89FB8980818062D3CFE6
:10044000682F88E491E00C94D901CF93DF93EC01FD
:10045000888D8823B9F0AA89BB89E889F9898C91AC
:1004600085FD03C0808186FD0DC00FB607FCF7CF68
:100470008C9185FFF2CF808185FFEDCFCE010E9468
:10048000B801E9CFDF91CF9108953FB7F8948091FB
:10049000370190913801A0913901B0913A0126B508
:1004A000A89B05C02F3F19F00196A11DB11D3FBFAC
:1004B000BA2FA92F982F8827BC01CD01620F711D7B
:1004C000811D911D42E0660F771F881F991F4A9575
:1004D000D1F708958F929F92AF92BF92CF92DF9201
:1004E000EF92FF926B017C010E9445024B015C017F
:1004F000C114D104E104F104B9F00E944502681965
:1005000079098A099B09683E73408105910580F34A
:1005100021E0C21AD108E108F10888EE880E83E0D4
:10052000981EA11CB11CE4CFFF90EF90DF90CF90FC
:10053000BF90AF909F908F900895FC010190002094
:10054000E9F73197AF01481B590BBC0188E491E0F2
:100550000C945F008F929F92AF92BF920F931F9364
:10056000CF93DF93CDB7DEB7A1970FB6F894DEBF78
:100570000FBECDBF19A2423008F44AE08E010F5DD4
:100580001F4F842E912CB12CA12CA50194010E9407
:100590002A09E62FB901CA01EA30F4F4E05DD80176
:1005A000EE938D01232B242B252B79F790E080E00F
:1005B000109719F0CD010E949D02A1960FB6F894F4
:1005C000DEBF0FBECDBFDF91CF911F910F91BF90C6
:1005D000AF909F908F900895E95CE1CF4F925F922A
:1005E0006F927F928F929F92AF92BF92CF92DF9243
:1005F000EF92FF920F931F93CF936B017C01742EA8
:10060000AC019B010E94C60A882399F086E191E023
:10061000CF911F910F91FF90EF90DF90CF90BF90FF
:10062000AF909F908F907F906F905F904F900C94C1
:100630009D0246015701E894B7F82FEF3FEF4FE7CF
:100640005FE7C501B4010E94C60A81110DC02FEFFA
:100650003FEF4FE75FE7C501B4010E94D4071816CA
:100660001CF48AE191E0D4CF2FEF3FEF4FE75FE436
:10067000C701B6010E94C10A18161CF48EE191E070
:10068000C7CF2FEF3FEF4FE75FECC701B6010E94E6
:10069000D40787FDF3CF20E030E0A901C701B60100
:1006A0000E94D40710E000E087FF08C08DE20E949E
:1006B00020028C01F7FAF094F7F8F094C0E060E0C3
:1006C00070E080E09FE37C1641F020E030E040E203
:1006D00051E40E94DF09CF5FF6CFA70196010E9487
:1006E0005C092B013C010E94510A4B015C014AE06C
:1006F0000E94AA027C01E00EF11ECC23B1F1C501DB
:10070000B4010E94D9079B01AC01C301B2010E9450
:100710005B094B015C018EE20E942002E80EF91E8B
:10072000C15018F120E030E040E251E4C501B401CD
:100730000E943A082B013C010E94510A4B01B12C46
:10074000A12C4AE0C501B4010E94AA02E80EF91EDC
:10075000C501B4010E94D9079B01AC01C301B201DC
:100760000E945B094B015C01DBCFC701CF911F9158
:100770000F91FF90EF90DF90CF90BF90AF909F9040
:100780008F907F906F905F904F9008951F920F927F
:100790000FB60F9211242F933F934F935F936F9354
:1007A0007F938F939F93AF93BF93EF93FF9388E4CF
:1007B00091E00E94B801FF91EF91BF91AF919F919D
:1007C0008F917F916F915F914F913F912F910F90FA
:1007D0000FBE0F901F9018951F920F920FB60F9299
:1007E00011242F938F939F93EF93FF93E0915801E0
:1007F000F09159018081E0915E01F0915F0182FDED
:100800001BC09081809161018F5F8F732091620185
:10081000821741F0E0916101F0E0E85BFE4F958FB7
:1008200080936101FF91EF919F918F912F910F9094
:100830000FBE0F901F9018958081F4CF1F920F92DA
:100840000FB60F9211242F933F938F939F93AF93E3
:10085000BF938091440190914501A0914601B091D0
:1008600047013091360123E0230F2D3758F50196CB
:10087000A11DB11D20933601809344019093450141
:10088000A0934601B09347018091370190913801C0
:10089000A0913901B0913A010196A11DB11D80933B
:1008A000370190933801A0933901B0933A01BF9179
:1008B000AF919F918F913F912F910F900FBE0F900D
:1008C0001F90189526E8230F0296A11DB11DD2CFC7
:1008D000CF93DF93CDB7DEB7A2970FB6F894DEBF04
:1008E0000FBECDBF789484B5826084BD84B581602D
:1008F00084BD85B5826085BD85B5816085BD8091EB
:100900006E00816080936E00109281008091810062
:10091000826080938100809181008160809381005A
:10092000809180008160809380008091B10084601C
:100930008093B1008091B00081608093B00080917D
:100940007A00846080937A0080917A00826080933C
:100950007A0080917A00816080937A0080917A0099
:10096000806880937A001092C100E0915801F09164
:10097000590182E08083E0915401F0915501108289
:10098000E0915601F09157018FEC80831092600145
:10099000E0915C01F0915D0186E08083E0915A0175
:1009A000F0915B01808180618083E0915A01F09138
:1009B0005B01808188608083E0915A01F0915B0146
:1009C000808180688083E0915A01F0915B01808191
:1009D0008F7D808382E291E00E949D0282E391E01C
:1009E0000E949D0280E0282E80E0382E11E088E4ED
:1009F00091E00E949801892BD1F0809143018111EF
:100A000020C00E94FD0060933F01709340018093DD
:100A10004101909342010E94FD0060933B0170935D
:100A20003C0180933D0190933E01109343012114BA
:100A30003104E9F20E94A4018823C9F20E94000057
:100A4000D6CF2FB7F8946091440170914501809101
:100A50004601909147012FBF0E94D907698F7A8F75
:100A60008B8F9C8F0E94FD000E94FD0069837A831A
:100A70008B839C830E94FD006D837E838F83988788
:100A80000E94FD006D877E878F87988B0E94FD00F6
:100A9000698B7A8B8B8B9C8B0E94FD006D8B7E8B80
:100AA0008F8B988F2AE037ED43E25CE30E94DF09E9
:100AB0000E94C8096D8F7E8F8F8F98A3C0903F01D1
:100AC000D0904001E0904101F090420140903B0104
:100AD00050903C0160903D0170903E011AA219A215
:100AE00029A13AA1B901330F880B990B0E94DB07AA
:100AF0002D8D3E8D4F8D58A10E94D40718160CF4F1
:100B000098C021E83BE743EA59E369897A898B89F0
:100B10009C890E943A084B015C0129813A814B81F2
:100B20005C81C701B6010E945C0969877A878B875F
:100B30009C872D813E814F815885CA01B9010E9451
:100B40005C099B01AC0169857A858B859C850E9437
:100B50005B0921E83BE743EA5AE30E943A089B011C
:100B6000AC01C501B4010E945B094B015C0126E3A5
:100B70003AE743E150E46D857E858F8598890E9430
:100B80003A0869877A878B879C8729813A814B81CC
:100B90005C81C701B6010E945B099B01AC016985BC
:100BA0007A858B859C850E943A089B01AC01C50122
:100BB000B4010E945B092AE037ED43E25CE30E9446
:100BC0003A089B01AC01C701B6010E945C096B01A8
:100BD0007C0122EE38E140E752E40E945B0923EEFB
:100BE00035EA4BE95CE30E943A084B015C0120E0E6
:100BF00030E040EA50E4C301B2010E945B099B016E
:100C0000AC01C501B4010E945B092EE333EC4EE256
:100C100059E30E943A089B01AC01C301B2010E9452
:100C20005C092B013C0189A19AA101969AA389A391
:100C300057CFC0923F01D0924001E0924101F09223
:100C4000420140923B0150923C0160923D01709202
:100C50003E0120E030E0A901C701B6010E94D4079F
:100C600087FFB0C010923F011092400110924101E5
:100C7000109242018FB7F894C0904401D090450182
:100C8000E0904601F09047018FBF20E030E04AE756
:100C900054E46D897E898F89988D0E943A084B01B2
:100CA0005C01C701B6010E94D907298D3A8D4B8D91
:100CB0005C8D0E945B099B01AC01C501B4010E94DF
:100CC0005B096B017C0120E030E0A9010E94C10AB0
:100CD00087FD90C0C701B6010E94510A0E946A02B6
:100CE0000E947C0724E030E040E050E00E94F808D9
:100CF00062507109810991090E94DB0720E030E010
:100D000040E252E40E94DF0920913F01309140010E
:100D100040914101509142010E945C0942E00E94D1
:100D2000EE0286E20E9420020E947C0722E030E070
:100D300040E050E00E94F808615071098109910972
:100D40000E94DB0720E030E040EA51E40E94DF0926
:100D500020913B0130913C0140913D0150913E0179
:100D60000E945C0942E00E94EE0286E20E9420029C
:100D700042E069817A818B819C810E94EE0286E249
:100D80000E94200242E06D817E818F8198850E94C1
:100D9000EE0286E20E94200242E06D857E858F850C
:100DA00098890E94EE0286E20E94200242E0698950
:100DB0007A898B899C890E94EE0282E391E00E94ED
:100DC0009D0235CE20E030E048EC52E4C701B60188
:100DD0000E94C10A18160CF04DCF80E090E0A8ECFC
:100DE000B2E480933F0190934001A0934101B093FE
:100DF000420140CFC501B4016FCFE8E4F1E01382B6
:100E0000128288EE93E0A0E0B0E084839583A6830D
:100E1000B78388E091E09183808385EC90E09587AB
:100E2000848784EC90E09787868780EC90E0918BB4
:100E3000808B81EC90E0938B828B82EC90E0958BA1
:100E4000848B86EC90E0978B868B118E128E138E9E
:100E5000148E0895EE0FFF1F0590F491E02D099474
:100E60008F929F92AF92BF92CF92DF92EF92FF92BA
:100E7000CF93DF93EC01688179818A819B81611531
:100E800071058105910521F464E279ED8BE597E028
:100E90002DE133EF41E050E00E94F80849015A018A
:100EA0009B01AC01A7EAB1E40E9417096B017C0128
:100EB000ACEEB4EFA50194010E942509C60ED71E21
:100EC000E81EF91EF7FE06C081E0C81AD108E10845
:100ED00080E8F80AC882D982EA82FB82C701B6019B
:100EE0009F77DF91CF91FF90EF90DF90CF90BF90F1
:100EF000AF909F908F9008958F929F92AF92BF92E4
:100F0000CF92DF92EF92FF92609100017091010108
:100F10008091020190910301611571058105910590
:100F200021F464E279ED8BE597E02DE133EF41E0C8
:100F300050E00E94F80849015A019B01AC01A7EA60
:100F4000B1E40E9417096B017C01ACEEB4EFA5017E
:100F500094010E942509C60ED71EE81EF91EF7FE51
:100F600006C081E0C81AD108E10880E8F80AC092FA
:100F70000001D0920101E0920201F0920301C70149
:100F8000B6019F77FF90EF90DF90CF90BF90AF902A
:100F90009F908F900895609300017093010180935A
:100FA00002019093030108950E94160808F481E05D
:100FB0000895E89409C097FB3EF49095809570954C
:100FC00061957F4F8F4F9F4F9923A9F0F92F96E995
:100FD000BB279395F695879577956795B795F1110A
:100FE000F8CFFAF4BB0F11F460FF1BC06F5F7F4FA7
:100FF0008F4F9F4F16C0882311F096E911C07723B9
:1010000021F09EE8872F762F05C0662371F096E8C1
:10101000862F70E060E02AF09A95660F771F881F90
:10102000DAF7880F9695879597F90895990F000834
:10103000550FAA0BE0E8FEEF16161706E807F907AA
:10104000C0F012161306E407F50798F0621B730B45
:10105000840B950B39F40A2661F0232B242B252BC6
:1010600021F408950A2609F4A140A6958FEF811D69
:10107000811D08950E944D080C94BE080E94B0087E
:1010800038F00E94B70820F0952311F00C94A708BF
:101090000C94AD0811240C94F2080E94CF0870F350
:1010A000959FC1F3950F50E0551F629FF001729F0D
:1010B000BB27F00DB11D639FAA27F00DB11DAA1F1C
:1010C000649F6627B00DA11D661F829F2227B00D69
:1010D000A11D621F739FB00DA11D621F839FA00DF4
:1010E000611D221F749F3327A00D611D231F849F44
:1010F000600D211D822F762F6A2F11249F5750409B
:101100009AF0F1F088234AF0EE0FFF1FBB1F661F15
:10111000771F881F91505040A9F79E3F510580F0DE
:101120000C94A7080C94F2085F3FE4F3983ED4F3C4
:10113000869577956795B795F795E7959F5FC1F782
:10114000FE2B880F911D9695879597F9089597F92D
:101150009F6780E870E060E008959FEF80EC08955D
:1011600000240A9416161706180609060895002486
:101170000A9412161306140605060895092E039400
:10118000000C11F4882352F0BB0F40F4BF2B11F474
:1011900060FF04C06F5F7F4F8F4F9F4F089557FDD3
:1011A0009058440F551F59F05F3F71F04795880FD5
:1011B00097FB991F61F09F3F79F08795089512166C
:1011C00013061406551FF2CF4695F1DF08C0161618
:1011D00017061806991FF1CF8695710561050894C9
:1011E0000895E894BB2766277727CB0197F90895E0
:1011F000052E97FB1EF400940E940F0957FD07D09F
:101200000E942A0907FC03D04EF40C940F09509554
:101210004095309521953F4F4F4F5F4F08959095E2
:101220008095709561957F4F8F4F9F4F08950E94D5
:101230004C09A59F900DB49F900DA49F800D911D0A
:1012400011240895B7FF0C9417090E941709821BF7
:10125000930B0895A1E21A2EAA1BBB1BFD010DC022
:10126000AA1FBB1FEE1FFF1FA217B307E407F50756
:1012700020F0A21BB30BE40BF50B661F771F881F32
:10128000991F1A9469F760957095809590959B01C8
:10129000AC01BD01CF010895A29FB001B39FC00171
:1012A000A39F700D811D1124911DB29F700D811D92
:1012B0001124911D08955058BB27AA270E94730935
:1012C0000C94BE080E94B00838F00E94B70820F0C5
:1012D00039F49F3F19F426F40C94AD080EF4E09510
:1012E000E7FB0C94A708E92F0E94CF0858F3BA1720
:1012F000620773078407950720F079F4A6F50C942C
:10130000F1080EF4E0950B2EBA2FA02D0B01B901B8
:1013100090010C01CA01A0011124FF27591B99F06B
:10132000593F50F4503E68F11A16F040A22F232F77
:10133000342F4427585FF3CF469537952795A795C7
:10134000F0405395C9F77EF41F16BA0B620B730B6E
:10135000840BBAF09150A1F0FF0FBB1F661F771FDF
:10136000881FC2F70EC0BA0F621F731F841F48F494
:10137000879577956795B795F7959E3F08F0B0CF1D
:101380009395880F08F09927EE0F97958795089504
:101390000E94A90A90F09F3748F4911116F40C941A
:1013A000F20860E070E080E89FE3089526F01B16E5
:1013B000611D711D811D0C94800A0C949B0A0E9472
:1013C000F3090C94BE080E94B70858F00E94B008B8
:1013D00040F029F45F3F29F00C94A70851110C94B8
:1013E000F2080C94AD080E94CF0868F39923B1F37A
:1013F000552391F3951B550BBB27AA27621773073B
:10140000840738F09F5F5F4F220F331F441FAA1FCE
:10141000A9F335D00E2E3AF0E0E832D0915050408A
:10142000E695001CCAF72BD0FE2F29D0660F771F38
:10143000881FBB1F261737074807AB07B0E809F01E
:10144000BB0B802DBF01FF2793585F4F3AF09E3FA3
:10145000510578F00C94A7080C94F2085F3FE4F370
:10146000983ED4F3869577956795B795F7959F5FE6
:10147000C9F7880F911D9695879597F90895E1E032
:10148000660F771F881FBB1F621773078407BA0791
:1014900020F0621B730B840BBA0BEE1F88F7E095EC
:1014A00008950E94D70888F09F5798F0B92F992780
:1014B000B751B0F0E1F0660F771F881F991F1AF03F
:1014C000BA95C9F714C0B13091F00E94F108B1E0AB
:1014D00008950C94F108672F782F8827B85F39F0AA
:1014E000B93FCCF3869577956795B395D9F73EF4D8
:1014F00090958095709561957F4F8F4F9F4F089580
:10150000882371F4772321F09850872B762F07C01A
:10151000662311F499270DC09051862B70E060E08E
:101520002AF09A95660F771F881FDAF7880F96952D
:10153000879597F908959F3F31F0915020F4879552
:1015400077956795B795880F911D9695879597F92B
:1015500008950E94D708A0F0BEE7B91788F4BB270A
:101560009F3860F41616B11D672F782F8827985F73
:10157000F7CF869577956795B11D93959639C8F302
:1015800008950E94160808F48FEF08950E94160827
:0A159000880B990B0895F894FFCF23
:10159A000100000000000000D9015F008C00250254
:1015AA0098019B00AF006E616E00696E66006F76EF
:1015BA006600496E697469616C697A696E672E2E74
:0615CA002E000D0A0000D6
:00000001FF
