:100000000C9435000C945D000C945D000C945D0024
:100010000C945D000C945D000C945D000C945D00EC
:100020000C945D000C945D000C945D000C945D00DC
:100030000C945D000C945D000C945D000C945D00CC
:100040000C94BF040C945D000C9492040C946C040A
:100050000C945D000C945D000C945D000C945D00AC
:100060000C945D000C945D00260A11241FBECFEF96
:10007000D8E0DEBFCDBF11E0A0E0B1E0ECEEFBE1E7
:1000800002C005900D92A633B107D9F721E0A6E38F
:10009000B1E001C01D92A93EB207E1F710E0C5E34F
:1000A000D0E004C02197FE010E94530AC433D10757
:1000B000C9F70E9407050C94F40D0C940000CF9230
:1000C000DF92EF92FF920F931F93CF93DF937C0108
:1000D0006A0110E000E00C151D0581F0EB01D7016D
:1000E000ED91FC910190F081E02D6991C701099596
:1000F000892B21F00F5F1F4FBE01EDCFC801DF91AB
:10010000CF911F910F91FF90EF90DF90CF900895C6
:10011000FC01538D448D252F30E0842F90E0821B0D
:10012000930B541710F0CF96089501970895FC0192
:10013000918D828D981761F0A28DAE0FBF2FB11DEA
:100140005D968C91928D9F5F9F73928F90E0089542
:100150008FEF9FEF0895FC01918D828D981731F0FC
:10016000828DE80FF11D858D90E008958FEF9FEF50
:1001700008952FB7F8948091480190914901A0917A
:100180004A01B0914B012FBF8093540190935501C8
:10019000A0935601B09357018CE491E00E94AB000C
:1001A00097FF26C02FB7F89480914801909149019C
:1001B000A0914A01B0914B012FBF40915401509141
:1001C00055016091560170915701841B950BA60B48
:1001D000B70B4091500150915101609152017091C3
:1001E000530184179507A607B707B0F28FEF9FEF6B
:1001F0000895AF92BF92CF92DF92EF92FF920F934A
:100200001F93CF93DF9300D000D000D0CDB7DEB7DF
:100210000E94B900FC0197FDA9C08D32910521F023
:10022000C0970A9708F08EC000E010E080E88E8347
:100230009FE39D83C12CD12C7601B12CA12CE13000
:10024000F105C1F1ED32F10509F485C0EE32F10599
:1002500009F484C0CF01C0970A9760F5AAE0B0E026
:10026000A70196010E94400C69837A838B839C834B
:100270006F01FF0FEE08FF08C60ED71EE81EF91E1D
:10028000A0E3CA1AD108E108F108BB2099F02DECCF
:100290003CEC4CEC5DE309831A83BE81BB838D810A
:1002A0008C8369817A818B819C810E94630B8B0195
:1002B0008E839D838CE491E00E9497000E94B90098
:1002C000FC01C0970A9708F4BACFEE32F10509F0A5
:1002D00048C0BB2009F4B3CFAA2041F0F094E094C9
:1002E000D094C094C11CD11CE11CF11CC701B60103
:1002F0000E94040BBB2069F098014E815D816983E7
:100300007A838B839C8369817A818B819C810E9413
:10031000630B69837A838B839C8369817A818B8168
:100320009C8126960FB6F894DEBF0FBECDBFDF913D
:10033000CF911F910F91FF90EF90DF90CF90BF90E2
:10034000AF900895EE32F10509F46ECF8CE491E0A0
:100350000E9497005DCFAA24A394ACCFBB24B39492
:10036000A9CFE130F10509F46ACFB6CF60E070E0C3
:1003700080E090E0CECFFC01818D228D90E0805C0A
:100380009F4F821B91098F73992708958CE491E008
:100390000E94BB019C0181E0232B09F480E00895B9
:1003A00080E090E0892B29F00E94C60181110C9415
:1003B00000000895FC01A48DA80FB92FB11DA35A08
:1003C000BF4F2C91848D90E001968F739927848F75
:1003D000A689B7892C93A089B1898C9180648C936C
:1003E000938D848D981306C00288F389E02D808157
:1003F0008F7D80830895EF92FF920F931F93CF9389
:10040000DF93EC01F62E81E0888F9B8D8C8D981305
:1004100016C0E889F989808185FF11C0EE89FF89BE
:100420006083E889F98980818064808381E090E03D
:10043000DF91CF911F910F91FF90EF9008950B8D59
:1004400010E00F5F1F4F0F731127E02E8C8D8E1160
:100450000CC00FB607FCFACFE889F989808185FFC7
:10046000F5CFCE010E94DA01F1CFEB8DEC0FFD2F1D
:10047000F11DE35AFF4FF0820B8FEA89FB898081DF
:100480008062D3CF682F8CE491E00C94FB01CF9372
:10049000DF93EC01888D8823B9F0AA89BB89E889AC
:1004A000F9898C9185FD03C0808186FD0DC00FB652
:1004B00007FCF7CF8C9185FFF2CF808185FFEDCFD0
:1004C000CE010E94DA01E9CFDF91CF910895CF9359
:1004D000DF9300D000D0CDB7DEB73FB7F89480915E
:1004E000370190913801A0913901B0913A0126B5B8
:1004F000A89B05C02F3F19F00196A11DB11D3FBF5C
:10050000BA2FA92F982F8827820F911DA11DB11DE9
:100510009C01AD0162E0220F331F441F551F6A95F5
:10052000D1F7CA01B9010F900F900F900F90DF9192
:10053000CF9108958F929F92AF92BF92CF92DF9208
:10054000EF92FF92CF93DF9300D000D0CDB7DEB70C
:100550006B017C010E9467024B015C01C114D10454
:10056000E104F104C9F00E946702DC01CB018819A3
:100570009909AA09BB09883E9340A105B10570F30A
:1005800021E0C21AD108E108F10888EE880E83E064
:10059000981EA11CB11CE2CF0F900F900F900F90EE
:1005A000DF91CF91FF90EF90DF90CF90BF90AF9011
:1005B0009F908F900895BC01009761F0FC0101901D
:1005C0000020E9F73197AF01481B590B8CE491E00B
:1005D0000C945F0090E080E008952F923F924F923C
:1005E0005F926F927F928F929F92AF92BF92CF92C3
:1005F000DF92EF92FF920F931F93CF93DF93CDB7CC
:10060000DEB7AC970FB6F894DEBF0FBECDBF8B013F
:100610009C010AA31BA32CA33DA3F42EAC019B01B8
:100620000E94EF0D8823F9F086E191E00E94DB0241
:100630008C01C801AC960FB6F894DEBF0FBECDBFDB
:10064000DF91CF911F910F91FF90EF90DF90CF90AE
:10065000BF90AF909F908F907F906F905F904F90E2
:100660003F902F9008958AA19BA1ACA1BDA1BF7717
:100670008EA39FA3A8A7B9A72FEF3FEF4FE75FE790
:10068000BC01CD010E94EF0D81110FC02FEF3FEF94
:100690004FE75FE76EA17FA188A599A50E94FD0A9B
:1006A00018161CF48AE191E0C1CF2FEF3FEF4FE71E
:1006B0005FE46AA17BA18CA19DA10E94EA0D18169E
:1006C0001CF48EE191E0B2CF2FEF3FEF4FE75FECEC
:1006D0006AA17BA18CA19DA10E94FD0A87FDF1CF9B
:1006E00020E030E0A9016AA17BA18CA19DA10E941C
:1006F000FD0A87FF25C08DE20E9442028AA79BA7C0
:100700008AA19BA1ACA1BDA1B0588AA39BA3ACA315
:10071000BDA310E060E070E080E09FE3F11699F087
:1007200020E030E040E251E46EA37FA388A799A7C0
:100730006EA17FA188A599A50E94080D1F5FEECF2D
:100740001BA61AA6E6CF2AA13BA14CA15DA16AA3D4
:100750007BA38CA39DA36AA17BA18CA19DA10E94D8
:10076000850C6AA37BA38CA39DA36AA17BA18CA10A
:100770009DA10E947A0D962EA72E8C010E94020B3D
:100780009B01AC016AA17BA18CA19DA10E94840C5C
:10079000B62EC72ED82EE92E19A23E0191E2690E7F
:1007A000711C6CA6872C9AE0292E312C412C512CDF
:1007B000692D7A2DC801A20191010E94530C892D47
:1007C0009A2DD801922EA32E8A01605DF3016293C7
:1007D0003F010A97A105B10558F7CF010E94DB023E
:1007E0000AA51BA5080F191FFF2029F08EE20E9401
:1007F0004202080F191F8AE0482E512C612C712CDF
:10080000FA94FFEFFF1609F414CF20E030E040E245
:1008100051E4BAA2CBA2DCA2EDA26AA17BA18CA179
:100820009DA10E94630B962EA72EB82EE92E6AA3D7
:100830007BA38CA39DA36AA17BA18CA19DA10E94F7
:100840007A0D6EA37FA388A799A7AEA1BFA1CD0102
:10085000B0E0A0E08AA39BA3ACA3BDA319A2CCA443
:10086000D82C6AA17BA18CA19DA1A30192010E9419
:10087000530C8AA19BA1ACA1BDA12AA33BA34CA36D
:100880005DA3605DF60162936F010A97A105B10552
:1008900040F7CF010E94DB02080F191FAEA1BFA1D4
:1008A000CD01B0E0A0E08AA39BA3ACA3BDA3BC0193
:1008B000CD010E94020B9B01AC019AA2ABA2BCA28B
:1008C000EDA26AA17BA18CA19DA10E94840CB62EF1
:1008D000C72ED82EE92E94CF1F920F920FB60F92EB
:1008E00011242F933F934F935F936F937F938F9335
:1008F0009F93AF93BF93EF93FF938CE491E00E949B
:10090000DA01FF91EF91BF91AF919F918F917F910C
:100910006F915F914F913F912F910F900FBE0F906C
:100920001F9018952F932FB72F938F939F93EF932B
:10093000FF93E0915C01F0915D018081E0916201A3
:10094000F091630182FD19C09081809165018F5FF4
:100950008F7320916601821741F0E0916501F0E00C
:10096000E45BFE4F958F80936501FF91EF919F911E
:100970008F912F912FBF2F9118958081F6CF1F92C5
:100980001FB61F9211242F933F938F939F93AF9382
:10099000BF938091480190914901A0914A01B09183
:1009A0004B013091360123E0230F2D3750F501968E
:1009B000A11DB11D209336018093480190934901F8
:1009C000A0934A01B0934B01809137019091380177
:1009D000A0913901B0913A010196A11DB11D8093FA
:1009E000370190933801A0933901B0933A01BF9138
:1009F000AF919F918F913F912F911F901FBE1F909C
:100A0000189526E8230F0296A11DB11DD3CFCDB7AF
:100A1000DEB7AC970FB6F894DEBF0FBECDBF7894AB
:100A200084B5826084BD84B5816084BD85B58260F3
:100A300085BD85B5816085BD80916E0081608093A4
:100A40006E0010928100809181008260809381000D
:100A5000809181008160809381008091800081601D
:100A6000809380008091B10084608093B100809178
:100A7000B00081608093B00080917A0084608093A0
:100A80007A0080917A00826080937A0080917A0067
:100A9000816080937A0080917A00806880937A00E8
:100AA0001092C100E0915C01F0915D0182E08083D1
:100AB000E0915801F09159011082E0915A01F091B2
:100AC0005B018FEC808310926401E0916001F091F2
:100AD000610186E08083E0915E01F0915F01808199
:100AE00080618083E0915E01F0915F018081886088
:100AF0008083E0915E01F0915F0180818068808356
:100B0000E0915E01F0915F0180818F7D808382E2C0
:100B100091E00E94DB0282E391E00E94DB028CE420
:100B200091E00E94BB01892B09F441C080914701EB
:100B300081114AC00E94F9006093430170934401FF
:100B400080934501909346010E94F90023E333E925
:100B500048E853E469837A838B839C8369817A8133
:100B60008B819C810E94850C60933F0170934001B2
:100B700080934101909342010E94F90023E333E9FD
:100B800048E853E469837A838B839C8369817A8103
:100B90008B819C810E94850C60933B0170933C018A
:100BA00080933D0190933E0121E02093470120E096
:100BB00030E0232B09F4B3CF0E94C601882309F447
:100BC000AECF0E940000ABCF8FB7F89420914801C0
:100BD0003091490140914A0150914B0129833A8358
:100BE0004B835C838FBF69817A818B819C810E945A
:100BF000020B6BA37CA38DA39EA30E94F9000E940D
:100C0000F9006B877C878D879E870E94F9006F872C
:100C1000788B898B9A8B0E94F9006B8B7C8B8D8BE8
:100C20009E8B0E94F90023E333E948E853E469838B
:100C30007A838B839C8369817A818B819C810E94DA
:100C4000850C6F8B788F898F9A8F0E94F90023E330
:100C500033E948E853E469837A838B839C83698111
:100C60007A818B819C810E94850C6B8F7C8F8D8F0C
:100C70009E8F0E94F9006F8F78A389A39AA32AE020
:100C800037ED43E25CE369837A8399A19B83AAA150
:100C9000AC8369817A818B819C810E94080D698374
:100CA0007A838B839C8369817A818B819C810E946A
:100CB000F10C6FA378A789A79AA70091430110911F
:100CC0004401B0914501BCA7209146012BA7A090FB
:100CD0003F01B09040014090410150904201C090CE
:100CE0003B01D0903C01E0903D01F0903E011E821E
:100CF0001D828D819E81092E000CAA0BBB0B89835E
:100D00009A83AB83BC83BC01CD010E94040B2FA14D
:100D100038A549A55AA569837A838B839C83698109
:100D20007A818B819C810E94FD0A18160CF4AEC159
:100D300023EC35EF48E450E49B859983AC85AA8386
:100D4000BD85BB838E858C8369817A818B819C81F3
:100D50000E94080D3B014C0123EC35EF48E450E4C0
:100D60009F859983A889AA83B989BB838A898C8343
:100D700069817A818B819C810E94080D9B01AC0165
:100D800069827A828B829C8269817A818B819C8143
:100D90000E94840C2AE037ED43E25CE369837A83A6
:100DA0008B839C8369817A818B819C810E94630BF8
:100DB0009B01AC0109831A839CA59B83ABA5AC83E3
:100DC00069817A818B819C810E94850C8B018CA723
:100DD0009BA720E030E0A90169831A838B839C8361
:100DE00069817A818B819C810E94FD0A87FD49C1BE
:100DF00020E030E040E450E469817A818B819C817D
:100E00000E94EA0D181634F400E010E090E49CA76C
:100E1000A0E4ABA723EC35EF48E450E409831A8340
:100E2000BCA5BB838BA58C8369817A818B819C81D6
:100E30000E94630B9B01AC019B859983AC85AA83BF
:100E4000BD85BB838E858C8369817A818B819C81F2
:100E50000E94080D3B014C019501A2019F899983D5
:100E6000A88DAA83B98DBB838A8D8C8369817A8191
:100E70008B819C810E94840C9B01AC0169827A82E7
:100E80008B829C8269817A818B819C810E94630B19
:100E90003B014C0198014CA55BA568E47CE883EA22
:100EA0009DE30E94080D1B0189879A879501A20185
:100EB000C982DA82EB82FC8269817A818B819C8192
:100EC0000E94840C9B01AC0129823A8299859B8304
:100ED000AA85AC8369817A818B819C810E94630B96
:100EE0009B01AC0169827A828B829C8269817A81C2
:100EF0008B819C810E94850C2AE037ED43E25CE304
:100F000069837A838B839C8369817A818B819C81BD
:100F10000E94630B9501A20169837A838B839C8372
:100F200069817A818B819C810E94850C3B014C01F7
:100F300020E030E040E05FE3BB89B9838C898A839D
:100F40009D899B83AE89AC8369817A818B819C81E9
:100F50000E94630B1B0189879A879601A701BB8DAD
:100F6000B9838C8D8A839D8D9B83AE8DAC83698183
:100F70007A818B819C810E94840C9B01AC01298227
:100F80003A82B985BB838A858C8369817A818B811A
:100F90009C810E94630B1B0189879A879601A70198
:100FA000A982BA824B825C8269817A818B819C8121
:100FB0000E94840C2CE433E14EEF5DE369837A8375
:100FC0008B839C8369817A818B819C810E94630BD6
:100FD0009B01AC0129823A8299859B83AA85AC83C7
:100FE00069817A818B819C810E94850C2AE037ED92
:100FF00043E25CE369837A838B839C8369817A8192
:101000008B819C810E94630B9B01AC01C982DA82B7
:10101000EB82FC8269817A818B819C810E94850CA4
:101020006B017C0120E030E0A90169827A828B8229
:101030009C8269817A818B819C810E94FD0A87FF55
:1010400004C0612C712C812C912C20E030E0A9018E
:10105000C982DA82EB82FC8269817A818B819C81F0
:101060000E94FD0A87FF04C0C12CD12CE12CF12C79
:101070002D813E812F5F3F4F3E832D8353012401FD
:1010800038CE00E010E01CA61BA6C4CEC801ACA55B
:10109000BBA58093430190934401A0934501B09375
:1010A0004601C501D20180933F0190934001A09376
:1010B0004101B0934201C601D70180933B01909357
:1010C0003C01A0933D01B0933E018FB7F89420916D
:1010D00048013091490140914A0150914B012D83C3
:1010E0003E834F8358878FBF20E030E04AE754E4C7
:1010F0008F8D898398A19A83A9A1AB83BAA1BC8360
:1011000069817A818B819C810E94630B8B018A8724
:1011100099876D817E818F8198850E94020B2BA11A
:101120003CA14DA15EA169837A838B839C836981F5
:101130007A818B819C810E94840C9B01AC01098384
:101140001A838A858B8399859C8369817A818B81B7
:101150009C810E94840C6B017C0120E030E0A9019D
:101160006983DA828B83FC8269817A818B819C819D
:101170000E94EA0D87FD63C169817A818B819C8120
:101180000E947A0D0E949A020E94A50A24E030E093
:1011900040E050E00E94210C9B01AC01225031093B
:1011A0004109510929833A834B835C83CA01B90100
:1011B0000E94040B20E030E048EC52E469837A831B
:1011C0008B839C8369817A818B819C810E94080D2D
:1011D00020914301309144014091450150914601D5
:1011E00069837A838B839C8369817A818B819C81DB
:1011F0000E94850C42E069837A838B839C8369819A
:101200007A818B819C810E94ED0286E20E944202DB
:1012100023E333E948E853E460913F0170914001D2
:1012200080914101909142010E94840C8B01898739
:101230009D830E94A50A22E030E040E050E00E9439
:10124000210CDC01CB010197A109B10989839A83A3
:10125000AB83BC83BC01CD010E94040B20E030E0D5
:1012600040E05FE369837A838B839C8369817A8121
:101270008B819C810E94630B980149855D81698304
:101280007A838B839C8369817A818B819C810E9484
:10129000850C42E069837A838B839C8369817A81A0
:1012A0008B819C810E94ED0286E20E94420223E330
:1012B00033E948E853E460913B0170913C0180912F
:1012C0003D0190913E010E94840C8B0189879D8392
:1012D0000E94A50A22E030E040E050E00E94210C8C
:1012E0009B01AC01215031094109510929833A83FD
:1012F0004B835C83CA01B9010E94040B20E030E0FB
:1013000040E85EE369837A838B839C8369817A8179
:101310008B819C810E94630B980149855D81698363
:101320007A838B839C8369817A818B819C810E94E3
:10133000850C42E069837A838B839C8369817A81FF
:101340008B819C810E94ED0286E20E94420242E073
:101350003B8539835C855A838D858B839E859C83F1
:1013600069817A818B819C810E94ED0286E20E94D4
:10137000420242E0AF85A983B889BA8329892B83C9
:101380003A893C8369817A818B819C810E94ED023C
:1013900086E20E94420242E05B8959838C898A83FB
:1013A0009D899B83AE89AC8369817A818B819C8185
:1013B0000E94ED0286E20E94420223E333E948E8FC
:1013C00053E4BF89B983888D8A83998D9B83AA8DC5
:1013D000AC8369817A818B819C810E94840C42E07C
:1013E00069837A838B839C8369817A818B819C81D9
:1013F0000E94ED0286E20E94420223E333E948E8BC
:1014000053E4BB8DB9838C8D8A839D8D9B83AE8D78
:10141000AC8369817A818B819C810E94840C42E03B
:1014200069837A838B839C8369817A818B819C8198
:101430000E94ED0282E391E00E94DB02B8CB0983B7
:101440001A83AA85AB83B985BC8396CEECE4F1E020
:101450001382128288EE93E0A0E0B0E0848395834B
:10146000A683B78388E091E09183808385EC90E048
:101470009587848784EC90E09787868780EC90E05E
:10148000918B808B81EC90E0938B828B82EC90E04F
:10149000958B848B86EC90E0978B868B118E128EC9
:1014A000138E148E0895EE0FFF1F0590F491E02D1A
:1014B00009948F929F92AF92BF92CF92DF92EF9258
:1014C000FF92CF93DF93EC01688179818A819B81C0
:1014D000611571058105910521F464E279ED8BE5D3
:1014E00097E02DE133EF41E050E00E94210C4901EB
:1014F0005A019B01AC01A7EAB1E40E94400C6B01C8
:101500007C01ACEEB4EFA50194010E944E0CC60E16
:10151000D71EE81EF91EF7FE06C081E0C81AD108E2
:10152000E10880E8F80AC882D982EA82FB82C70112
:10153000B6019F77DF91CF91FF90EF90DF90CF9032
:10154000BF90AF909F908F9008958F929F92AF928F
:10155000BF92CF92DF92EF92FF9260910001709163
:1015600001018091020190910301611571058105CE
:10157000910521F464E279ED8BE597E02DE133EFFD
:1015800041E050E00E94210C49015A019B01AC014D
:10159000A7EAB1E40E94400C6B017C01ACEEB4EF11
:1015A000A50194010E944E0CC60ED71EE81EF91E1E
:1015B000F7FE06C081E0C81AD108E10880E8F80A01
:1015C000C0920001D0920101E0920201F092030169
:1015D000C701B6019F77FF90EF90DF90CF90BF904B
:1015E000AF909F908F9008956093000170930101D8
:1015F000809302019093030108950E943F0B08F429
:1016000081E00895E89409C097FB3EF49095809599
:10161000709561957F4F8F4F9F4F9923A9F0F92FB8
:1016200096E9BB279395F695879577956795B79536
:10163000F111F8CFFAF4BB0F11F460FF1BC06F5F1C
:101640007F4F8F4F9F4F16C0882311F096E911C02E
:10165000772321F09EE8872F762F05C0662371F04F
:1016600096E8862F70E060E02AF09A95660F771F63
:10167000881FDAF7880F9695879597F90895990F3F
:101680000008550FAA0BE0E8FEEF16161706E8074C
:10169000F907C0F012161306E407F50798F0621B6D
:1016A000730B840B950B39F40A2661F0232B242B42
:1016B000252B21F408950A2609F4A140A6958FEF61
:1016C000811D811D08950E94760B0C94E70B0E94EA
:1016D000D90B38F00E94E00B20F0952311F00C9408
:1016E000D00B0C94D60B11240C941B0C0E94F80BFD
:1016F00070F3959FC1F3950F50E0551F629FF00165
:10170000729FBB27F00DB11D639FAA27F00DB11D7D
:10171000AA1F649F6627B00DA11D661F829F222706
:10172000B00DA11D621F739FB00DA11D621F839F8D
:10173000A00D611D221F749F3327A00D611D231F63
:10174000849F600D211D822F762F6A2F11249F57B1
:1017500050409AF0F1F088234AF0EE0FFF1FBB1FB4
:10176000661F771F881F91505040A9F79E3F510573
:1017700080F00C94D00B0C941B0C5F3FE4F3983E6C
:10178000D4F3869577956795B795F795E7959F5F1D
:10179000C1F7FE2B880F911D9695879597F90895AF
:1017A00097F99F6780E870E060E008959FEF80EC14
:1017B000089500240A9416161706180609060895B7
:1017C00000240A9412161306140605060895092E1D
:1017D0000394000C11F4882352F0BB0F40F4BF2B8C
:1017E00011F460FF04C06F5F7F4F8F4F9F4F0895CC
:1017F00057FD9058440F551F59F05F3F71F04795C2
:10180000880F97FB991F61F09F3F79F087950895A6
:10181000121613061406551FF2CF4695F1DF08C0C5
:10182000161617061806991FF1CF869571056105E2
:1018300008940895E894BB2766277727CB0197F98A
:101840000895052E97FB1EF400940E94380C57FD56
:1018500007D00E94530C07FC03D04EF40C94380CB4
:1018600050954095309521953F4F4F4F5F4F0895CC
:1018700090958095709561957F4F8F4F9F4F0895FC
:101880000E94750CA59F900DB49F900DA49F800D94
:10189000911D11240895B7FF0C94400C0E94400C38
:1018A000821B930B0895A1E21A2EAA1BBB1BFD01FC
:1018B0000DC0AA1FBB1FEE1FFF1FA217B307E4072F
:1018C000F50720F0A21BB30BE40BF50B661F771F87
:1018D000881F991F1A9469F7609570958095909567
:1018E0009B01AC01BD01CF010895A29FB001B39F40
:1018F000C001A39F700D811D1124911DB29F700D19
:10190000811D1124911D08955058BB27AA270E94BC
:101910009C0C0C94E70B0E94D90B38F00E94E00B52
:1019200020F039F49F3F19F426F40C94D60B0EF4F2
:10193000E095E7FB0C94D00BE92F0E94F80B58F3CD
:10194000BA17620773078407950720F079F4A6F5A4
:101950000C941A0C0EF4E0950B2EBA2FA02D0B014F
:10196000B90190010C01CA01A0011124FF27591BE4
:1019700099F0593F50F4503E68F11A16F040A22FEA
:10198000232F342F4427585FF3CF4695379527955B
:10199000A795F0405395C9F77EF41F16BA0B620B5A
:1019A000730B840BBAF09150A1F0FF0FBB1F661FA1
:1019B000771F881FC2F70EC0BA0F621F731F841FE4
:1019C00048F4879577956795B795F7959E3F08F00A
:1019D000B0CF9395880F08F09927EE0F97958795CC
:1019E00008950E94D20D90F09F3748F4911116F49B
:1019F0000C941B0C60E070E080E89FE3089526F0F3
:101A00001B16611D711D811D0C94A90D0C94C40D34
:101A10000E941C0D0C94E70B0E94E00B58F00E94F2
:101A2000D90B40F029F45F3F29F00C94D00B5111F1
:101A30000C941B0C0C94D60B0E94F80B68F39923A2
:101A4000B1F3552391F3951B550BBB27AA276217BA
:101A50007307840738F09F5F5F4F220F331F441FC7
:101A6000AA1FA9F335D00E2E3AF0E0E832D09150FB
:101A70005040E695001CCAF72BD0FE2F29D0660FE8
:101A8000771F881FBB1F261737074807AB07B0E82B
:101A900009F0BB0B802DBF01FF2793585F4F3AF031
:101AA0009E3F510578F00C94D00B0C941B0C5F3FBB
:101AB000E4F3983ED4F3869577956795B795F795B7
:101AC0009F5FC9F7880F911D9695879597F908959F
:101AD000E1E0660F771F881FBB1F6217730784073B
:101AE000BA0720F0621B730B840BBA0BEE1F88F74A
:101AF000E09508950E94000C88F09F5798F0B92F48
:101B00009927B751B0F0E1F0660F771F881F991F32
:101B10001AF0BA95C9F714C0B13091F00E941A0CAE
:101B2000B1E008950C941A0C672F782F8827B85FBE
:101B300039F0B93FCCF3869577956795B395D9F78A
:101B40003EF490958095709561957F4F8F4F9F4F94
:101B50000895882371F4772321F09850872B762FEE
:101B600007C0662311F499270DC09051862B70E0B1
:101B700060E02AF09A95660F771F881FDAF7880FC2
:101B80009695879597F908959F3F31F0915020F4ED
:101B9000879577956795B795880F911D9695879549
:101BA00097F908950E94000CA0F0BEE7B91788F4D9
:101BB000BB279F3860F41616B11D672F782F882732
:101BC000985FF7CF869577956795B11D9395963970
:101BD000C8F308950E943F0B08F48FEF08950E9408
:0C1BE0003F0B880B990B0895F894FFCF81
:101BEC000100000000000000FB015F0088004702BC
:101BFC00BB019700AB006E616E00696E66006F767C
:101C0C006600496E697469616C697A696E672E2E1B
:061C1C002E000D0A00007D
:00000001FF
