:100000000C9476000C949E000C949E000C949E0020
:100010000C949E000C949E000C949E000C949E00E8
:100020000C949E000C949E000C949E000C949E00D8
:100030000C949E000C949E000C949E000C949E00C8
:100040000C945F040C949E000C942D040C940704F3
:100050000C949E000C949E000C949E000C949E00A8
:100060000C949E000C949E0007634236B79BD8A761
:100070001A39685618AEBAAB558C1D3CB7CC5763CD
:10008000BD6DEDFD753EF6177231BF000000803F7B
:1000900008000000BE922449123EABAAAA2ABECD97
:1000A000CCCC4C3E00000080BEABAAAAAA3E000009
:1000B0000000BF000000803F000000000008417801
:1000C000D3BB4387D1133D190E3CC3BD4282AD2B38
:1000D0003E68EC8276BED98FE1A93E4C80EFFFBE30
:1000E00001C4FF7F3F0000000000EE0611241FBE88
:1000F000CFEFD8E0DEBFCDBF11E0A0E0B1E0E4ED8E
:10010000F6E102C005900D92A233B107D9F721E0C4
:10011000A2E3B1E001C01D92A13EB207E1F710E0F9
:10012000C6E7D0E004C02197FE010E943D07C53715
:10013000D107C9F70E94A9040C94680B0C94000025
:10014000AF92BF92CF92DF92EF92FF920F931F93E5
:10015000CF93DF936C017B018B01040F151FEB0123
:100160005E01AE18BF08C017D10759F06991D601DA
:10017000ED91FC910190F081E02DC6010995892B4C
:1001800079F7C501DF91CF911F910F91FF90EF900B
:10019000DF90CF90BF90AF900895FC01538D448DB8
:1001A000252F30E0842F90E0821B930B541710F022
:1001B000CF96089501970895FC01918D828D98172F
:1001C00061F0A28DAE0FBF2FB11D5D968C91928D07
:1001D0009F5F9F73928F90E008958FEF9FEF089538
:1001E000FC01918D828D981731F0828DE80FF11D01
:1001F000858D90E008958FEF9FEF08952FB7F894C5
:100200008091400190914101A0914201B091430140
:100210002FBF80934C0190934D01A0934E01B0935A
:100220004F0184E491E00E94F00097FF26C02FB7B1
:10023000F8948091400190914101A0914201B091C8
:1002400043012FBF40914C0150914D0160914E01EF
:1002500070914F01841B950BA60BB70B4091480181
:100260005091490160914A0170914B0184179507A3
:10027000A607B707B0F28FEF9FEF08958F929F9276
:10028000AF92BF92CF92DF92EF92FF92CF93DF9324
:100290000E94FE00FC0197FD88C08D32910509F097
:1002A0004CC0812C912C80E8A82E8FE3B82EC12C55
:1002B000D12C7601C0E0D0E0E130F10559F1ED320A
:1002C000F10509F447C0EE32F10509F445C0CF014C
:1002D000C0970A97F8F4AAE0B0E0A70196010E943F
:1002E00067086F01FF0FEE08FF08C60ED71EE81E55
:1002F000F91E80E3C81AD108E108F108CC2351F0B7
:100300002DEC3CEC4CEC5DE3C501B4010E94A90767
:100310004B015C0184E491E00E94DC000E94FE003D
:10032000FC01C0970A9740F2EE32F105B9F4CC23F4
:1003300019F2CD2FD11118C025C0C0970A9708F423
:10034000B0CFEE32F10509F4ACCF84E491E00E9425
:10035000DC009ECFD1E0DECFC1E0DCCFE130F105A3
:1003600009F4AACFDD2341F0F094E094D094C09436
:10037000C11CD11CE11CF11CC701B6010E944A0737
:10038000CC2341F0C701B6010E944A07A5019401A0
:100390000E94A907DF91CF91FF90EF90DF90CF905F
:1003A000BF90AF909F908F90089560E070E0CB0178
:1003B000F1CFFC01918D228D892F90E0805C9F4FC1
:1003C000821B91098F739927089584E491E00E941C
:1003D000D90121E0892B09F420E0822F089580E0E3
:1003E00090E0892B29F00E94E50181110C94000016
:1003F0000895FC01A48DA80FB92FB11DA35ABF4FBA
:100400002C91848D90E001968F739927848FA68913
:10041000B7892C93A089B1898C9180648C93938D3A
:10042000848D981306C00288F389E02D80818F7D2A
:1004300080830895EF92FF920F931F93CF93DF93E2
:10044000EC01F62E81E0888F9B8D8C8D981316C061
:10045000E889F989808185FF11C0EE89FF89608371
:10046000E889F98980818064808381E090E0DF9170
:10047000CF911F910F91FF90EF9008950B8D10E099
:100480000F5F1F4F0F731127E02E8C8D8E110CC044
:100490000FB607FCFACFE889F989808185FFF5CF8F
:1004A000CE010E94F901F1CFEB8DEC0FFD2FF11D74
:1004B000E35AFF4FF0820B8FEA89FB8980818062CB
:1004C000D3CF682F84E491E00C941A02CF93DF938A
:1004D000EC01888D8823B9F0AA89BB89E889F9895C
:1004E0008C9185FD03C0808186FD0DC00FB607FC91
:1004F000F7CF8C9185FFF2CF808185FFEDCFCE01C4
:100500000E94F901E9CFDF91CF9108953FB7F894A8
:100510008091330190913401A0913501B091360161
:1005200026B5A89B05C02F3F19F00196A11DB11D4E
:100530003FBFBA2FA92F982F8827BC01CD01620F8A
:10054000711D811D911D42E0660F771F881F991F45
:100550004A95D1F708958F929F92AF92BF92CF9212
:10056000DF92EF92FF926B017C010E9486024B01A9
:100570005C01C114D104E104F104B9F00E948602C7
:10058000681979098A099B09683E734081059105BC
:1005900080F321E0C21AD108E108F10888EE880E44
:1005A00083E0981EA11CB11CE4CFFF90EF90DF9078
:1005B000CF90BF90AF909F908F900895FC010190D5
:1005C0000020E9F73197AF01481B590BBC0184E4C7
:1005D00091E00C94A0008F929F92AF92BF920F93E4
:1005E0001F93CF93DF93CDB7DEB7A1970FB6F894E3
:1005F000DEBF0FBECDBF19A2423008F44AE08E0123
:100600000F5D1F4F842E912CB12CA12CA5019401BC
:100610000E941B07E62FB901CA01EA30F4F4E05D3D
:10062000D801EE938D01232B242B252B79F790E015
:1006300080E0109719F0CD010E94DE02A1960FB65E
:10064000F894DEBF0FBECDBFDF91CF911F910F9108
:10065000BF90AF909F908F900895E95CE1CF4F924B
:100660005F926F927F928F929F92AF92BF92CF9242
:10067000DF92EF92FF920F931F93CF936B017C0158
:10068000742EAC019B010E943C0A882399F082E100
:1006900091E0CF911F910F91FF90EF90DF90CF905D
:1006A000BF90AF909F908F907F906F905F904F9092
:1006B0000C94DE0246015701E894B7F82FEF3FEFA4
:1006C0004FE75FE7C501B4010E943C0A81110DC0EC
:1006D0002FEF3FEF4FE75FE7C501B4010E944307EB
:1006E00018161CF486E191E0D4CF2FEF3FEF4FE7CF
:1006F0005FE4C701B6010E94E70918161CF48AE1FD
:1007000091E0C7CF2FEF3FEF4FE75FECC701B60196
:100710000E94430787FDF3CF20E030E0A901C70125
:10072000B6010E94430710E000E087FF08C08DE299
:100730000E9461028C01F7FAF094F7F8F094C0E09F
:1007400060E070E080E09FE37C1641F020E030E064
:1007500040E251E40E940509CF5FF6CFA701960160
:100760000E9482082B013C010E9477094B015C0129
:100770004AE00E94EB027C01E00EF11ECC23B1F1B5
:10078000C501B4010E9448079B01AC01C301B2013D
:100790000E9481084B015C018EE20E946102E80E1A
:1007A000F91EC15018F120E030E040E251E4C501EB
:1007B000B4010E94A9072B013C010E9477094B015B
:1007C000B12CA12C4AE0C501B4010E94EB02E80E55
:1007D000F91EC501B4010E9448079B01AC01C30189
:1007E000B2010E9481084B015C01DBCFC701CF91B0
:1007F0001F910F91FF90EF90DF90CF90BF90AF903F
:100800009F908F907F906F905F904F9008951F9270
:100810000F920FB60F9211242F933F934F935F9334
:100820006F937F938F939F93AF93BF93EF93FF93B8
:1008300084E491E00E94F901FF91EF91BF91AF91A3
:100840009F918F917F916F915F914F913F912F91E8
:100850000F900FBE0F901F9018951F920F920FB61A
:100860000F9211242F938F939F93EF93FF93E09117
:100870005401F09155018081E0915A01F0915B01A2
:1008800082FD1BC0908180915D018F5F8F732091ED
:100890005E01821741F0E0915D01F0E0EC5BFE4FFC
:1008A000958F80935D01FF91EF919F918F912F9193
:1008B0000F900FBE0F901F9018958081F4CF1F925C
:1008C0000F920FB60F9211242F933F938F939F9304
:1008D000AF93BF938091400190914101A09142015B
:1008E000B09143013091320123E0230F2D3758F5A9
:1008F0000196A11DB11D2093320180934001909378
:100900004101A0934201B093430180913301909142
:100910003401A0913501B09136010196A11DB11DA0
:100920008093330190933401A0933501B093360145
:10093000BF91AF919F918F913F912F910F900FBEDB
:100940000F901F90189526E8230F0296A11DB11D48
:10095000D2CFCF93DF93CDB7DEB76A970FB6F894B7
:10096000DEBF0FBECDBF789484B5826084BD84B5F0
:10097000816084BD85B5826085BD85B5816085BD9A
:1009800080916E00816080936E0010928100809152
:1009900081008260809381008091810081608093DA
:1009A0008100809180008160809380008091B100FF
:1009B00084608093B1008091B00081608093B0002A
:1009C00080917A00846080937A0080917A008260BE
:1009D00080937A0080917A00816080937A00809180
:1009E0007A00806880937A001092C100E0915401EF
:1009F000F091550182E08083E0915001F091510126
:100A00001082E0915201F09153018FEC808310929B
:100A10005C01E0915801F091590186E08083E091FA
:100A20005601F0915701808180618083E0915601E9
:100A3000F0915701808188608083E0915601F091A8
:100A40005701808180688083E0915601F0915701C1
:100A500080818F7D80838EE191E00E94DE028EE2B4
:100A600091E00E94DE0220E0222E20E0322E11E0F2
:100A700084E491E00E94D901892BD1F080913F015B
:100A8000811120C00E943E0160933B0170933C01A4
:100A900080933D0190933E010E943E016093370197
:100AA000709338018093390190933A0110933F017C
:100AB00021143104E9F20E94E5018823C9F20E9461
:100AC0000000D6CF2FB7F89460914001709141019A
:100AD00080914201909143012FBF0E9448076D878A
:100AE0007E878F87988B0E943E010E943E0169831A
:100AF0007A838B839C830E943E016D837E838F83E8
:100B000098870E943E0169877A878B879C872AE0B5
:100B100037ED43E25CE30E9405090E94EE08698B11
:100B20007A8B8B8B9C8BC0903701D0903801E090F2
:100B30003901F0903A0140903B0150903C016090A7
:100B40003D0170903E011A8E198E298D3A8DB901A2
:100B5000330F880B990B0E944A0729893A894B89E0
:100B60005C890E94430718160CF4BDC020E030E0F9
:100B700040E05FE3C701B6010E94EC092EEA37E4CA
:100B800041EE5DEB0E94A9074B015C012FE832ECBE
:100B900045EF5CE36D817E818F8198850E94A90776
:100BA0009B01AC01C501B4010E9482082AE037ED27
:100BB00043E25CE30E94A9079B01AC01C701B601B7
:100BC0000E9482086B017C0120E030E0A9010E94B4
:100BD000430787FD72C020E030E040EA51E4C701DE
:100BE000B6010E94E70918160CF46BC020E030E053
:100BF00040E05FE3C301B2010E94EC094B015C01DC
:100C000020E030E040E05FE3C701B6010E94EC095C
:100C10006D8B7E8B8F8B988F2FE832EC45EF5DEBE1
:100C2000C501B4010E94A9074B015C012EEA37E41B
:100C300041EE5DE36D897E898F89988D0E94A907B9
:100C40009B01AC01C501B4010E9482084B015C010B
:100C50002CEE31E548EB5DE369817A818B819C81E3
:100C60000E94A9079B01AC01C501B4010E94820842
:100C70002AE037ED43E25CE30E94A9079B01AC0147
:100C8000C301B2010E9482082B013C0120E030E048
:100C9000A9010E94430787FD1BC020E030E040EA25
:100CA00051E4C301B2010E94E7091816ACF0898D26
:100CB0009A8D01969A8F898F48CFC12CD12C7601BD
:100CC00095CFC12CD12C90EAE92E91E4F92E8ECF4C
:100CD000412C512C3201EBCF412C512C80EA682E53
:100CE00081E4782EE4CFC0923701D0923801E092AF
:100CF0003901F0923A0140923B0150923C016092DE
:100D00003D0170923E018FB7F894C0904001D090A1
:100D10004101E0904201F09043018FBF20E030E0BC
:100D20004AE754E469857A858B859C850E94A907EA
:100D30004B015C01C701B6010E9448072D853E8525
:100D40004F8558890E9481089B01AC01C501B401FF
:100D50000E9481086B017C0120E030E0A9010E9423
:100D6000E70987FD38C0C701B6010E9477090E94D4
:100D7000AB0260913B0170913C0180913D019091EB
:100D80003E0142E00E942F0386E20E9461026091D0
:100D90003701709138018091390190913A0142E018
:100DA0000E942F0386E20E94610242E069817A81FB
:100DB0008B819C810E942F0386E20E94610242E0A7
:100DC0006D817E818F8198850E942F038EE291E054
:100DD0000E94DE026DCEC501B401C7CFE4E4F1E0AC
:100DE0001382128288EE93E0A0E0B0E084839583C2
:100DF000A683B78384E091E09183808385EC90E0C3
:100E00009587848784EC90E09787868780EC90E0D4
:100E1000918B808B81EC90E0938B828B82EC90E0C5
:100E2000958B848B86EC90E0978B868B118E128E3F
:100E3000138E148E0895A1E21A2EAA1BBB1BFD016E
:100E40000DC0AA1FBB1FEE1FFF1FA217B307E407A9
:100E5000F50720F0A21BB30BE40BF50B661F771F01
:100E6000881F991F1A9469F76095709580959095E1
:100E70009B01AC01BD01CF010895EE0FFF1F05904E
:100E8000F491E02D09940E94850708F481E008950B
:100E9000E89409C097FB3EF4909580957095619514
:100EA0007F4F8F4F9F4F9923A9F0F92F96E9BB27CA
:100EB0009395F695879577956795B795F111F8CF46
:100EC000FAF4BB0F11F460FF1BC06F5F7F4F8F4FB1
:100ED0009F4F16C0882311F096E911C0772321F0A7
:100EE0009EE8872F762F05C0662371F096E8862F3F
:100EF00070E060E02AF09A95660F771F881FDAF796
:100F0000880F9695879597F90895990F0008550FC2
:100F1000AA0BE0E8FEEF16161706E807F907C0F07F
:100F200012161306E407F50798F0621B730B840B87
:100F3000950B39F40A2661F0232B242B252B21F461
:100F400008950A2609F4A140A6958FEF811D811D01
:100F500008950E94BC070C942D080E941F0838F0C9
:100F60000E94260820F0952311F00C9416080C948A
:100F70001C0811240C9461080E943E0870F3959F90
:100F8000C1F3950F50E0551F629FF001729FBB2780
:100F9000F00DB11D639FAA27F00DB11DAA1F649F1C
:100FA0006627B00DA11D661F829F2227B00DA11DCF
:100FB000621F739FB00DA11D621F839FA00D611D55
:100FC000221F749F3327A00D611D231F849F600D76
:100FD000211D822F762F6A2F11249F5750409AF09F
:100FE000F1F088234AF0EE0FFF1FBB1F661F771F2B
:100FF000881F91505040A9F79E3F510580F00C94F6
:1010000016080C9461085F3FE4F3983ED4F386958C
:1010100077956795B795F795E7959F5FC1F7FE2B95
:10102000880F911D9695879597F9089597F99F6771
:1010300080E870E060E008959FEF80EC0895002460
:101040000A941616170618060906089500240A942D
:1010500012161306140605060895092E0394000CB3
:1010600011F4882352F0BB0F40F4BF2B11F460FF42
:1010700004C06F5F7F4F8F4F9F4F089557FD90586B
:10108000440F551F59F05F3F71F04795880F97FB4C
:10109000991F61F09F3F79F0879508951216130606
:1010A0001406551FF2CF4695F1DF08C01616170635
:1010B0001806991FF1CF869571056105089408956A
:1010C000E894BB2766277727CB0197F908950E94FC
:1010D0007208A59F900DB49F900DA49F800D911D47
:1010E00011240895A29FB001B39FC001A39F700D6A
:1010F000811D1124911DB29F700D811D1124911D20
:1011000008955058BB27AA270E9499080C942D08CF
:101110000E941F0838F00E94260820F039F49F3FF3
:1011200019F426F40C941C080EF4E095E7FB0C94DB
:101130001608E92F0E943E0858F3BA176207730792
:101140008407950720F079F4A6F50C9460080EF456
:10115000E0950B2EBA2FA02D0B01B90190010C01C7
:10116000CA01A0011124FF27591B99F0593F50F4DF
:10117000503E68F11A16F040A22F232F342F442737
:10118000585FF3CF469537952795A795F04053952F
:10119000C9F77EF41F16BA0B620B730B840BBAF0FF
:1011A0009150A1F0FF0FBB1F661F771F881FC2F76A
:1011B0000EC0BA0F621F731F841F48F4879577957E
:1011C0006795B795F7959E3F08F0B0CF9395880F38
:1011D00008F09927EE0F9795879508950E94CF09FB
:1011E00090F09F3748F4911116F40C94610860E078
:1011F00070E080E89FE3089526F01B16611D711DC5
:10120000811D0C94A6090C94C1090E9419090C9423
:101210002D080E94260858F00E941F0840F029F46B
:101220005F3F29F00C94160851110C9461080C943E
:101230001C080E943E0868F39923B1F3552391F3EB
:10124000951B550BBB27AA2762177307840738F035
:101250009F5F5F4F220F331F441FAA1FA9F335D092
:101260000E2E3AF0E0E832D091505040E695001C46
:10127000CAF72BD0FE2F29D0660F771F881FBB1F00
:10128000261737074807AB07B0E809F0BB0B802DDE
:10129000BF01FF2793585F4F3AF09E3F510578F00A
:1012A0000C9416080C9461085F3FE4F3983ED4F365
:1012B000869577956795B795F7959F5FC9F7880FDE
:1012C000911D9695879597F90895E1E0660F771F30
:1012D000881FBB1F621773078407BA0720F0621BC1
:1012E000730B840BBA0BEE1F88F7E09508950E94EC
:1012F000460888F09F5798F0B92F9927B751B0F05A
:10130000E1F0660F771F881F991F1AF0BA95C9F789
:1013100014C0B13091F00E946008B1E008950C94BF
:101320006008672F782F8827B85F39F0B93FCCF372
:10133000869577956795B395D9F73EF49095809506
:10134000709561957F4F8F4F9F4F0895882371F45B
:10135000772321F09850872B762F07C0662311F44E
:1013600099270DC09051862B70E060E02AF09A9585
:10137000660F771F881FDAF7880F9695879597F97C
:1013800008959F3F31F0915020F4879577956795A8
:10139000B795880F911D9695879597F908950E94A6
:1013A0004608A0F0BEE7B91788F4BB279F3860F461
:1013B0001616B11D672F782F8827985FF7CF86956F
:1013C00077956795B11D93959639C8F308950E9456
:1013D000850708F48FEF0895FA01EE0FFF1F30968E
:1013E00021053105A1F16115710561F48038BFE374
:1013F0009B0749F168949038810561F08038BFEF10
:101400009B0741F099234AF5FF3FE105310521058E
:1014100019F1E8940894E795D901AA2329F4AB2F90
:10142000BE2FF85FD0F310C0FF5F70F4A695E0F711
:10143000F73950F019F0FF3A38F49F779F930DD0A9
:101440000F9007FC9058089546F00C941C0860E03B
:1014500070E080E89FE308954FE79F775F934F9395
:101460003F932F930E94EC0A2F913F914F915F91F0
:101470000E94A9070C94490A0E948507880B990BC2
:10148000089529F416F00C9416080C9460080C9436
:101490001C080E944608A8F39638A0F707F80F9298
:1014A000E8942BE33AEA48EB5FE70E94BF070F920C
:1014B0000F920F924DB75EB70F920E94340BE8E681
:1014C000F0E00E947B0A4F915F91EF91FF91E595CB
:1014D000EE1FFF1F49F0FE57E0684427EE0F441F40
:1014E000FA95E1F74195550B0E94AE0A0F9007FE61
:1014F0000C94A20A0895DF93CF931F930F93FF924A
:10150000EF92DF927B018C01689406C0DA2EEF0126
:101510000E94BC07FE01E894A59125913591459163
:101520005591A6F3EF010E949908FE019701A801C9
:10153000DA9469F7DF90EF90FF900F911F91CF91B0
:10154000DF9108959B01AC0160E070E080E89FE3CB
:101550000C9405090C9416080C94C1090E944608C5
:10156000D8F39923C9F3940F511DA3F39150504020
:1015700094F059F0882332F0660F771F881F91503E
:101580005040C1F79E3F51052CF7880F911D96954D
:10159000879597F908955F3FACF0983E9CF0BB2784
:1015A000869577956795B79508F4B1609395C1F7DF
:1015B000BB0F58F711F460FFE8CF6F5F7F4F8F4F7D
:1015C0009F4FE3CF0C94610816F00C94C1090C9462
:1015D0001C0868940C9416080E944608A8F39923E6
:1015E000C1F3AEF3DF93CF931F930F93FF92C92FF5
:1015F000DD2788232AF02197660F771F881FDAF7E7
:1016000020E030E040E85FEB9FE3883920F0803E47
:1016100038F021968F770E948208E0E9F0E004C05C
:101620000E948208EDEBF0E00E947B0A8B01BE0174
:10163000EC01FB2E6F5771097595771F880B990B7D
:101640000E944A0728E132E741E35FE30E94BC07BA
:10165000AF2D9801AE01FF900F911F91CF91DF91B7
:101660000E9499080C942D08FA01DC01AA0FBB1FF7
:101670009B01AC01BF5728F4222733274427507819
:1016800020C0B75190F4AB2F00244695379527958D
:10169000011CA395D2F3002071F0220F331F441FC9
:1016A000B395DAF30ED00C94810861307105A0E88F
:1016B0008A07B94630F49B01AC0166277727882753
:1016C0009078309621F020833183428353830895AC
:0416D000F894FFCFBC
:1016D400000000001A02A000CD006602D901DC005F
:1016E400F0006E616E00696E66006F766600496E8A
:1016F400697469616C697A696E672E2E2E000D0A11
:021704000000E3
:00000001FF
