:100000000C9476000C949E000C949E000C949E0020
:100010000C949E000C949E000C949E000C949E00E8
:100020000C949E000C949E000C949E000C949E00D8
:100030000C949E000C949E000C949E000C949E00C8
:100040000C945F040C949E000C942D040C940704F3
:100050000C949E000C949E000C949E000C949E00A8
:100060000C949E000C949E0007634236B79BD8A761
:100070001A39685618AEBAAB558C1D3CB7CC5763CD
:10008000BD6DEDFD753EF6177231BF000000803F7B
:1000900008000000BE922449123EABAAAA2ABECD97
:1000A000CCCC4C3E00000080BEABAAAAAA3E000009
:1000B0000000BF000000803F000000000008417801
:1000C000D3BB4387D1133D190E3CC3BD4282AD2B38
:1000D0003E68EC8276BED98FE1A93E4C80EFFFBE30
:1000E00001C4FF7F3F00000000009D0711241FBED8
:1000F000CFEFD8E0DEBFCDBF11E0A0E0B1E0E8EC8B
:10010000F9E102C005900D92A633B107D9F721E0BD
:10011000A6E3B1E001C01D92A93EB207E1F710E0ED
:10012000C6E7D0E004C02197FE010E94CA07C53788
:10013000D107C9F70E94A9040C94E20C0C940000AA
:10014000AF92BF92CF92DF92EF92FF920F931F93E5
:10015000CF93DF936C017B018B01040F151FEB0123
:100160005E01AE18BF08C017D10759F06991D601DA
:10017000ED91FC910190F081E02DC6010995892B4C
:1001800079F7C501DF91CF911F910F91FF90EF900B
:10019000DF90CF90BF90AF900895FC01538D448DB8
:1001A000252F30E0842F90E0821B930B541710F022
:1001B000CF96089501970895FC01918D828D98172F
:1001C00061F0A28DAE0FBF2FB11D5D968C91928D07
:1001D0009F5F9F73928F90E008958FEF9FEF089538
:1001E000FC01918D828D981731F0828DE80FF11D01
:1001F000858D90E008958FEF9FEF08952FB7F894C5
:100200008091480190914901A0914A01B0914B0120
:100210002FBF8093540190935501A0935601B09342
:1002200057018CE491E00E94F00097FF26C02FB7A1
:10023000F8948091480190914901A0914A01B091B0
:100240004B012FBF409154015091550160915601CF
:1002500070915701841B950BA60BB70B4091500171
:10026000509151016091520170915301841795078B
:10027000A607B707B0F28FEF9FEF08958F929F9276
:10028000AF92BF92CF92DF92EF92FF92CF93DF9324
:100290000E94FE00FC0197FD88C08D32910509F097
:1002A0004CC0812C912C80E8A82E8FE3B82EC12C55
:1002B000D12C7601C0E0D0E0E130F10559F1ED320A
:1002C000F10509F447C0EE32F10509F445C0CF014C
:1002D000C0970A97F8F4AAE0B0E0A70196010E943F
:1002E000B7096F01FF0FEE08FF08C60ED71EE81E04
:1002F000F91E80E3C81AD108E108F108CC2351F0B7
:100300002DEC3CEC4CEC5DE3C501B4010E94DA0835
:100310004B015C018CE491E00E94DC000E94FE0035
:10032000FC01C0970A9740F2EE32F105B9F4CC23F4
:1003300019F2CD2FD11118C025C0C0970A9708F423
:10034000B0CFEE32F10509F4ACCF8CE491E00E941D
:10035000DC009ECFD1E0DECFC1E0DCCFE130F105A3
:1003600009F4AACFDD2341F0F094E094D094C09436
:10037000C11CD11CE11CF11CC701B6010E947B0805
:10038000CC2341F0C701B6010E947B08A50194016E
:100390000E94DA08DF91CF91FF90EF90DF90CF902D
:1003A000BF90AF909F908F90089560E070E0CB0178
:1003B000F1CFFC01918D228D892F90E0805C9F4FC1
:1003C000821B91098F73992708958CE491E00E9414
:1003D000D90121E0892B09F420E0822F089580E0E3
:1003E00090E0892B29F00E94E50181110C94000016
:1003F0000895FC01A48DA80FB92FB11DA35ABF4FBA
:100400002C91848D90E001968F739927848FA68913
:10041000B7892C93A089B1898C9180648C93938D3A
:10042000848D981306C00288F389E02D80818F7D2A
:1004300080830895EF92FF920F931F93CF93DF93E2
:10044000EC01F62E81E0888F9B8D8C8D981316C061
:10045000E889F989808185FF11C0EE89FF89608371
:10046000E889F98980818064808381E090E0DF9170
:10047000CF911F910F91FF90EF9008950B8D10E099
:100480000F5F1F4F0F731127E02E8C8D8E110CC044
:100490000FB607FCFACFE889F989808185FFF5CF8F
:1004A000CE010E94F901F1CFEB8DEC0FFD2FF11D74
:1004B000E35AFF4FF0820B8FEA89FB8980818062CB
:1004C000D3CF682F8CE491E00C941A02CF93DF9382
:1004D000EC01888D8823B9F0AA89BB89E889F9895C
:1004E0008C9185FD03C0808186FD0DC00FB607FC91
:1004F000F7CF8C9185FFF2CF808185FFEDCFCE01C4
:100500000E94F901E9CFDF91CF9108953FB7F894A8
:100510008091370190913801A0913901B0913A0151
:1005200026B5A89B05C02F3F19F00196A11DB11D4E
:100530003FBFBA2FA92F982F8827BC01CD01620F8A
:10054000711D811D911D42E0660F771F881F991F45
:100550004A95D1F708958F929F92AF92BF92CF9212
:10056000DF92EF92FF926B017C010E9486024B01A9
:100570005C01C114D104E104F104B9F00E948602C7
:10058000681979098A099B09683E734081059105BC
:1005900080F321E0C21AD108E108F10888EE880E44
:1005A00083E0981EA11CB11CE4CFFF90EF90DF9078
:1005B000CF90BF90AF909F908F900895FC010190D5
:1005C0000020E9F73197AF01481B590BBC018CE4BF
:1005D00091E00C94A0008F929F92AF92BF920F93E4
:1005E0001F93CF93DF93CDB7DEB7A1970FB6F894E3
:1005F000DEBF0FBECDBF19A2423008F44AE08E0123
:100600000F5D1F4F842E912CB12CA12CA5019401BC
:100610000E94CA09E62FB901CA01EA30F4F4E05D8C
:10062000D801EE938D01232B242B252B79F790E015
:1006300080E0109719F0CD010E94DE02A1960FB65E
:10064000F894DEBF0FBECDBFDF91CF911F910F9108
:10065000BF90AF909F908F900895E95CE1CF4F924B
:100660005F926F927F928F929F92AF92BF92CF9242
:10067000DF92EF92FF920F931F93CF936B017C0158
:10068000742EAC019B010E94B60B882399F086E181
:1006900091E0CF911F910F91FF90EF90DF90CF905D
:1006A000BF90AF909F908F907F906F905F904F9092
:1006B0000C94DE0246015701E894B7F82FEF3FEFA4
:1006C0004FE75FE7C501B4010E94B60B81110DC071
:1006D0002FEF3FEF4FE75FE7C501B4010E947408B9
:1006E00018161CF48AE191E0D4CF2FEF3FEF4FE7CB
:1006F0005FE4C701B6010E94610B18161CF48EE17D
:1007000091E0C7CF2FEF3FEF4FE75FECC701B60196
:100710000E94740887FDF3CF20E030E0A901C701F3
:10072000B6010E94740810E000E087FF08C08DE267
:100730000E9461028C01F7FAF094F7F8F094C0E09F
:1007400060E070E080E09FE37C1641F020E030E064
:1007500040E251E40E947F0ACF5FF6CFA7019601E5
:100760000E94FC092B013C010E94F10A4B015C0133
:100770004AE00E94EB027C01E00EF11ECC23B1F1B5
:10078000C501B4010E9479089B01AC01C301B2010B
:100790000E94FB094B015C018EE20E946102E80E9F
:1007A000F91EC15018F120E030E040E251E4C501EB
:1007B000B4010E94DA082B013C010E94F10A4B01AE
:1007C000B12CA12C4AE0C501B4010E94EB02E80E55
:1007D000F91EC501B4010E9479089B01AC01C30157
:1007E000B2010E94FB094B015C01DBCFC701CF9135
:1007F0001F910F91FF90EF90DF90CF90BF90AF903F
:100800009F908F907F906F905F904F9008951F9270
:100810000F920FB60F9211242F933F934F935F9334
:100820006F937F938F939F93AF93BF93EF93FF93B8
:100830008CE491E00E94F901FF91EF91BF91AF919B
:100840009F918F917F916F915F914F913F912F91E8
:100850000F900FBE0F901F9018951F920F920FB61A
:100860000F9211242F938F939F93EF93FF93E09117
:100870005C01F0915D018081E0916201F091630182
:1008800082FD1BC09081809165018F5F8F732091E5
:100890006601821741F0E0916501F0E0E45BFE4FF4
:1008A000958F80936501FF91EF919F918F912F918B
:1008B0000F900FBE0F901F9018958081F4CF1F925C
:1008C0000F920FB60F9211242F933F938F939F9304
:1008D000AF93BF938091480190914901A0914A0143
:1008E000B0914B013091360123E0230F2D3758F59D
:1008F0000196A11DB11D209336018093480190936C
:100900004901A0934A01B0934B0180913701909126
:100910003801A0913901B0913A010196A11DB11D94
:100920008093370190933801A0933901B0933A0135
:10093000BF91AF919F918F913F912F910F900FBEDB
:100940000F901F90189526E8230F0296A11DB11D48
:10095000D2CFCF93DF93CDB7DEB7A2970FB6F8947F
:10096000DEBF0FBECDBF789484B5826084BD84B5F0
:10097000816084BD85B5826085BD85B5816085BD9A
:1009800080916E00816080936E0010928100809152
:1009900081008260809381008091810081608093DA
:1009A0008100809180008160809380008091B100FF
:1009B00084608093B1008091B00081608093B0002A
:1009C00080917A00846080937A0080917A008260BE
:1009D00080937A0080917A00816080937A00809180
:1009E0007A00806880937A001092C100E0915C01E7
:1009F000F0915D0182E08083E0915801F09159010E
:100A00001082E0915A01F0915B018FEC808310928B
:100A10006401E0916001F091610186E08083E091E2
:100A20005E01F0915F01808180618083E0915E01D1
:100A3000F0915F01808188608083E0915E01F09198
:100A40005F01808180688083E0915E01F0915F01A9
:100A500080818F7D808382E291E00E94DE0282E3CA
:100A600091E00E94DE0280E0282E80E0382E11E026
:100A70008CE491E00E94D901892B21F180914701FA
:100A800081112AC00E943E0160934301709344018A
:100A900080934501909346010E943E0160933F017F
:100AA0007093400180934101909342010E943E0166
:100AB00060933B0170933C0180933D0190933E0114
:100AC000109347012114310499F20E94E501882313
:100AD00079F20E940000CCCF2FB7F89460914801C2
:100AE0007091490180914A0190914B012FBF0E9462
:100AF0007908698F7A8F8B8F9C8F0E943E010E94AC
:100B00003E016D877E878F87988B0E943E01698B9F
:100B10007A8B8B8B9C8B0E943E016D8B7E8B8F8B97
:100B2000988F2AE037ED43E25CE30E947F0A0E943F
:100B3000680A6D8F7E8F8F8F98A3C0904301D090ED
:100B40004401E0904501F090460140903F015090F3
:100B50004001609041017090420180913B01909171
:100B60003C01A0913D01B0913E0189839A83AB8302
:100B7000BC831AA219A2A9A1BAA1BD01BB0F880BFF
:100B8000990B0E947B082D8D3E8D4F8D58A10E94A0
:100B9000740818160CF4FAC020E030E040E752E484
:100BA0006D857E858F8598890E94DA0820E030E087
:100BB00040E650E40E947F0A6D837E838F8398878E
:100BC00020E030E048E452ECC701B6010E94DA08A8
:100BD0004B015C01A7019601C701B6010E94DA082A
:100BE00020E030E040E251E40E94DA089B01AC01D1
:100BF000C501B4010E94FB094B015C01A7019601EC
:100C000069897A898B899C890E94FB092D813E81A3
:100C10004F8158850E94DA089B01AC01C501B401DF
:100C20000E94FC092EE333EC4EE259E30E94DA08FD
:100C30009B01AC01C701B6010E94FC096B017C015C
:100C400020E030E0A9010E94740887FF03C0C12C96
:100C5000D12C76012DEC3CEC4CE85FE3C301B201F2
:100C60000E94660B69877A878B879C8720E030E03B
:100C700048E452E4C701B6010E94DA084B015C0166
:100C800020E030E04CE852E469857A858B859C85CC
:100C90000E94DA089B01AC01C501B4010E94FB0966
:100CA0004B015C01C301B20190582D813E814F81FF
:100CB00058850E94DA089B01AC01C501B4010E946D
:100CC000FC092EE333EC4EE259E30E94DA089B0163
:100CD000AC01C301B2010E94FC092B013C0120E0E0
:100CE00030E0A9010E94740887FF03C0412C512CF9
:100CF00032012DEC3CEC4CE85FE3C301B2010E94F1
:100D0000660B69877A878B879C8769817A818B815B
:100D10009C8190582D813E814F8158850E94DA0830
:100D20004B015C0120E030E04CE852E469857A85B3
:100D30008B859C850E94DA089B01AC01C501B4013A
:100D40000E94FC092EE333EC4EE259E30E94DA08DC
:100D50009B01AC0169817A818B819C810E94FC0995
:100D600069837A838B839C8320E030E0A9010E9411
:100D7000740887FF04C019821A821B821C8229A171
:100D80003AA12F5F3F4F3AA329A3F5CEC09243016A
:100D9000D0924401E0924501F092460140923F0119
:100DA00050924001609241017092420189819A8182
:100DB000AB81BC8180933B0190933C01A0933D01AA
:100DC000B0933E018FB7F894C0904801D09049018C
:100DD000E0904A01F0904B018FBF20E030E04AE7FD
:100DE00054E46D897E898F89988D0E94DA084B01C1
:100DF0005C01C701B6010E947908298D3A8D4B8D9F
:100E00005C8D0E94FB099B01AC01C501B4010E94ED
:100E1000FB096B017C0120E030E0A9010E94610B1D
:100E200087FD88C0C701B6010E94F10A0E94AB028B
:100E30000E941C0822E030E040E050E00E94980947
:100E400061507109810991090E947B0820E030E01E
:100E500040E751E40E947F0A209143013091440110
:100E600040914501509146010E94FC0942E00E94D8
:100E70002F0386E20E9461020E941C0822E030E0FB
:100E800040E050E00E949809615071098109910980
:100E90000E947B0820E030E040E751E40E947F0A96
:100EA00020913F0130914001409141015091420118
:100EB0000E94FC0942E00E942F0386E20E94610228
:100EC0000E941C0822E030E040E050E00E949809B7
:100ED00061507109810991090E947B0820E030E08E
:100EE00040EA51E40E947F0A20913B0130913C018D
:100EF00040913D0150913E010E94FC0942E00E9458
:100F00002F0386E20E94610242E06D857E858F8517
:100F100098890E942F0386E20E94610242E069895B
:100F20007A898B899C890E942F0382E391E00E9439
:100F3000DE02C8CDC501B40177CFECE4F1E0138245
:100F4000128288EE93E0A0E0B0E084839583A683CC
:100F5000B78388E091E09183808385EC90E095876A
:100F6000848784EC90E09787868780EC90E0918B73
:100F7000808B81EC90E0938B828B82EC90E0958B60
:100F8000848B86EC90E0978B868B118E128E138E5D
:100F9000148E0895EE0FFF1F0590F491E02D099433
:100FA0008F929F92AF92BF92CF92DF92EF92FF9279
:100FB000CF93DF93EC01688179818A819B816115F0
:100FC00071058105910521F464E279ED8BE597E0E7
:100FD0002DE133EF41E050E00E94980949015A01A8
:100FE0009B01AC01A7EAB1E40E94B7096B017C0147
:100FF000ACEEB4EFA50194010E94C509C60ED71E40
:10100000E81EF91EF7FE06C081E0C81AD108E10803
:1010100080E8F80AC882D982EA82FB82C701B60159
:101020009F77DF91CF91FF90EF90DF90CF90BF90AF
:10103000AF909F908F9008958F929F92AF92BF92A2
:10104000CF92DF92EF92FF926091000170910101C7
:10105000809102019091030161157105810591054F
:1010600021F464E279ED8BE597E02DE133EF41E087
:1010700050E00E94980949015A019B01AC01A7EA7E
:10108000B1E40E94B7096B017C01ACEEB4EFA5019D
:1010900094010E94C509C60ED71EE81EF91EF7FE70
:1010A00006C081E0C81AD108E10880E8F80AC092B9
:1010B0000001D0920101E0920201F0920301C70108
:1010C000B6019F77FF90EF90DF90CF90BF90AF90E9
:1010D0009F908F9008956093000170930101809319
:1010E00002019093030108950E94B60808F481E07C
:1010F0000895E89409C097FB3EF49095809570950B
:1011000061957F4F8F4F9F4F9923A9F0F92F96E953
:10111000BB279395F695879577956795B795F111C8
:10112000F8CFFAF4BB0F11F460FF1BC06F5F7F4F65
:101130008F4F9F4F16C0882311F096E911C0772377
:1011400021F09EE8872F762F05C0662371F096E880
:10115000862F70E060E02AF09A95660F771F881F4F
:10116000DAF7880F9695879597F90895990F0008F3
:10117000550FAA0BE0E8FEEF16161706E807F90769
:10118000C0F012161306E407F50798F0621B730B04
:10119000840B950B39F40A2661F0232B242B252B85
:1011A00021F408950A2609F4A140A6958FEF811D28
:1011B000811D08950E94ED080C945E090E9450095B
:1011C00038F00E94570920F0952311F00C9447093C
:1011D0000C944D0911240C9492090E946F0970F32C
:1011E000959FC1F3950F50E0551F629FF001729FCC
:1011F000BB27F00DB11D639FAA27F00DB11DAA1FDB
:10120000649F6627B00DA11D661F829F2227B00D27
:10121000A11D621F739FB00DA11D621F839FA00DB2
:10122000611D221F749F3327A00D611D231F849F02
:10123000600D211D822F762F6A2F11249F57504059
:101240009AF0F1F088234AF0EE0FFF1FBB1F661FD4
:10125000771F881F91505040A9F79E3F510580F09D
:101260000C9447090C9492095F3FE4F3983ED4F341
:10127000869577956795B795F795E7959F5FC1F741
:10128000FE2B880F911D9695879597F9089597F9EC
:101290009F6780E870E060E008959FEF80EC08951C
:1012A00000240A9416161706180609060895002445
:1012B0000A9412161306140605060895092E0394BF
:1012C000000C11F4882352F0BB0F40F4BF2B11F433
:1012D00060FF04C06F5F7F4F8F4F9F4F089557FD92
:1012E0009058440F551F59F05F3F71F04795880F94
:1012F00097FB991F61F09F3F79F08795089512162B
:1013000013061406551FF2CF4695F1DF08C01616D6
:1013100017061806991FF1CF869571056105089487
:101320000895E894BB2766277727CB0197F908959E
:10133000052E97FB1EF400940E94AF0957FD07D0BD
:101340000E94CA0907FC03D04EF40C94AF095095D3
:101350004095309521953F4F4F4F5F4F08959095A1
:101360008095709561957F4F8F4F9F4F08950E9494
:10137000EC09A59F900DB49F900DA49F800D911D29
:1013800011240895B7FF0C94B7090E94B709821B76
:10139000930B0895A1E21A2EAA1BBB1BFD010DC0E1
:1013A000AA1FBB1FEE1FFF1FA217B307E407F50715
:1013B00020F0A21BB30BE40BF50B661F771F881FF1
:1013C000991F1A9469F760957095809590959B0187
:1013D000AC01BD01CF010895A29FB001B39FC00130
:1013E000A39F700D811D1124911DB29F700D811D51
:1013F0001124911D08955058BB27AA270E94130A53
:101400000C945E090E94500938F00E94570920F0A0
:1014100039F49F3F19F426F40C944D090EF4E0952D
:10142000E7FB0C944709E92F0E946F0958F3BA179C
:10143000620773078407950720F079F4A6F50C94EA
:1014400091090EF4E0950B2EBA2FA02D0B01B901D6
:1014500090010C01CA01A0011124FF27591B99F02A
:10146000593F50F4503E68F11A16F040A22F232F36
:10147000342F4427585FF3CF469537952795A79586
:10148000F0405395C9F77EF41F16BA0B620B730B2D
:10149000840BBAF09150A1F0FF0FBB1F661F771F9E
:1014A000881FC2F70EC0BA0F621F731F841F48F453
:1014B000879577956795B795F7959E3F08F0B0CFDC
:1014C0009395880F08F09927EE0F979587950895C3
:1014D0000E94490B90F09F3748F4911116F40C9438
:1014E000920960E070E080E89FE3089526F01B1603
:1014F000611D711D811D0C94200B0C943B0B0E94EF
:10150000930A0C945E090E94570958F00E945009F2
:1015100040F029F45F3F29F00C94470951110C94D5
:1015200092090C944D090E946F0968F39923B1F355
:10153000552391F3951B550BBB27AA2762177307F9
:10154000840738F09F5F5F4F220F331F441FAA1F8D
:10155000A9F335D00E2E3AF0E0E832D09150504049
:10156000E695001CCAF72BD0FE2F29D0660F771FF7
:10157000881FBB1F261737074807AB07B0E809F0DD
:10158000BB0B802DBF01FF2793585F4F3AF09E3F62
:10159000510578F00C9447090C9492095F3FE4F3ED
:1015A000983ED4F3869577956795B795F7959F5FA5
:1015B000C9F7880F911D9695879597F90895E1E0F1
:1015C000660F771F881FBB1F621773078407BA0750
:1015D00020F0621B730B840BBA0BEE1F88F7E095AB
:1015E00008950E94770988F09F5798F0B92F99279E
:1015F000B751B0F0E1F0660F771F881F991F1AF0FE
:10160000BA95C9F714C0B13091F00E949109B1E0C8
:1016100008950C949109672F782F8827B85F39F0C7
:10162000B93FCCF3869577956795B395D9F73EF496
:1016300090958095709561957F4F8F4F9F4F08953E
:10164000882371F4772321F09850872B762F07C0D9
:10165000662311F499270DC09051862B70E060E04D
:101660002AF09A95660F771F881FDAF7880F9695EC
:10167000879597F908959F3F31F0915020F4879511
:1016800077956795B795880F911D9695879597F9EA
:1016900008950E947709A0F0BEE7B91788F4BB2728
:1016A0009F3860F41616B11D672F782F8827985F32
:1016B000F7CF869577956795B11D93959639C8F3C1
:1016C00008950E94B60808F48FEF0895FA01EE0F0E
:1016D000FF1F309621053105A1F16115710561F4F7
:1016E0008038BFE39B0749F168949038810561F029
:1016F0008038BFEF9B0741F099234AF5FF3FE10592
:101700003105210519F1E8940894E795D901AA2338
:1017100029F4AB2FBE2FF85FD0F310C0FF5F70F439
:10172000A695E0F7F73950F019F0FF3A38F49F77B3
:101730009F930DD00F9007FC9058089546F00C949D
:101740004D0960E070E080E89FE308954FE79F77E0
:101750005F934F933F932F930E94660C2F913F917D
:101760004F915F910E94DA080C94C30B0E94B60857
:10177000880B990B089529F416F00C9447090C94E2
:1017800091090C944D090E947709A8F39638A0F7A7
:1017900007F80F92E8942BE33AEA48EB5FE70E94E0
:1017A000F0080F920F920F924DB75EB70F920E9402
:1017B000AE0CE8E6F0E00E94F50B4F915F91EF91DF
:1017C000FF91E595EE1FFF1F49F0FE57E0684427A3
:1017D000EE0F441FFA95E1F74195550B0E94280C36
:1017E0000F9007FE0C941C0C0895DF93CF931F936A
:1017F0000F93FF92EF92DF927B018C01689406C0F9
:10180000DA2EEF010E94ED08FE01E894A5912591E2
:10181000359145915591A6F3EF010E94130AFE01FF
:101820009701A801DA9469F7DF90EF90FF900F918C
:101830001F91CF91DF9108959B01AC0160E070E0B2
:1018400080E89FE30C947F0A0C9447090C943B0BAF
:101850000E947709D8F39923C9F3940F511DA3F37C
:101860009150504094F059F0882332F0660F771F62
:10187000881F91505040C1F79E3F51052CF7880FAB
:10188000911D9695879597F908955F3FACF0983E26
:101890009CF0BB27869577956795B79508F4B1605E
:1018A0009395C1F7BB0F58F711F460FFE8CF6F5F56
:1018B0007F4F8F4F9F4FE3CF0C94920916F00C94FB
:1018C0003B0B0C944D0968940C9447090E947709CE
:1018D000A8F39923C1F3AEF3DF93CF931F930F9334
:1018E000FF92C92FDD2788232AF02197660F771FE3
:1018F000881FDAF720E030E040E85FEB9FE38839AB
:1019000020F0803E38F021968F770E94FC09E0E9B4
:10191000F0E004C00E94FC09EDEBF0E00E94F50B42
:101920008B01BE01EC01FB2E6F5771097595771F76
:10193000880B990B0E947B0828E132E741E35FE3C3
:101940000E94ED08AF2D9801AE01FF900F911F91FD
:10195000CF91DF910E94130A0C945E09FA01DC0119
:10196000AA0FBB1F9B01AC01BF5728F422273327C6
:101970004427507820C0B75190F4AB2F00244695EF
:1019800037952795011CA395D2F3002071F0220F03
:10199000331F441FB395DAF30ED00C94FB0961306A
:1019A0007105A0E88A07B94630F49B01AC016627AF
:1019B000772788279078309621F0208331834283DF
:0819C00053830895F894FFCF52
:1019C80001000000000000001A02A000CD0066021D
:1019D800D901DC00F0006E616E00696E66006F76FA
:1019E8006600496E697469616C697A696E672E2E42
:0619F8002E000D0A0000A4
:00000001FF
