:100000000C9476000C949E000C949E000C949E0020
:100010000C949E000C949E000C949E000C949E00E8
:100020000C949E000C949E000C949E000C949E00D8
:100030000C949E000C949E000C949E000C949E00C8
:100040000C9400050C949E000C94D3040C94AD0405
:100050000C949E000C949E000C949E000C949E00A8
:100060000C949E000C949E0007634236B79BD8A761
:100070001A39685618AEBAAB558C1D3CB7CC5763CD
:10008000BD6DEDFD753EF6177231BF000000803F7B
:1000900008000000BE922449123EABAAAA2ABECD97
:1000A000CCCC4C3E00000080BEABAAAAAA3E000009
:1000B0000000BF000000803F000000000008417801
:1000C000D3BB4387D1133D190E3CC3BD4282AD2B38
:1000D0003E68EC8276BED98FE1A93E4C80EFFFBE30
:1000E00001C4FF7F3F0000000000480511241FBE2F
:1000F000CFEFD8E0DEBFCDBF11E0A0E0B1E0EAE98C
:10010000FDE102C005900D92A633B107D9F721E0B9
:10011000A6E3B1E001C01D92AD3EB207E1F710E0E9
:10012000C6E7D0E004C02197FE010E94B309C5379D
:10013000D107C9F70E948D050C94CB0E0C940000DA
:10014000CF92DF92EF92FF920F931F93CF93DF93A3
:100150007C016A0110E000E00C151D0581F0EB0147
:10016000D701ED91FC910190F081E02D6991C701DB
:100170000995892B21F00F5F1F4FBE01EDCFC801FC
:10018000DF91CF911F910F91FF90EF90DF90CF9073
:100190000895FC01538D448D252F30E0842F90E08D
:1001A000821B930B541710F0CF9608950197089572
:1001B000FC01918D828D981761F0A28DAE0FBF2F3B
:1001C000B11D5D968C91928D9F5F9F73928F90E091
:1001D00008958FEF9FEF0895FC01918D828D981700
:1001E00031F0828DE80FF11D858D90E008958FEF3D
:1001F0009FEF08952FB7F8948091440190914501A5
:10020000A0914601B09147012FBF80935001909378
:100210005101A0935201B093530188E491E00E94F0
:10022000EC0097FF26C02FB7F8948091440190917D
:100230004501A0914601B09147012FBF4091500167
:10024000509151016091520170915301841B950BA3
:10025000A60BB70B40914C0150914D0160914E019E
:1002600070914F0184179507A607B707B0F28FEF7B
:100270009FEF0895AF92BF92CF92DF92EF92FF92DD
:100280000F931F93CF93DF9300D000D000D0CDB752
:10029000DEB70E94FA00FC0197FDA9C08D329105DE
:1002A00021F0C0970A9708F08EC000E010E080E8C7
:1002B0008E839FE39D83C12CD12C7601B12CA12C80
:1002C000E130F105C1F1ED32F10509F485C0EE32FE
:1002D000F10509F484C0CF01C0970A9760F5AAE040
:1002E000B0E0A70196010E94A00B69837A838B83FB
:1002F0009C836F01FF0FEE08FF08C60ED71EE81E95
:10030000F91EA0E3CA1AD108E108F108BB2099F050
:100310002DEC3CEC4CEC5DE309831A83BE81BB837E
:100320008D818C8369817A818B819C810E94C30A33
:100330008B018E839D8388E491E00E94D8000E9407
:10034000FA00FC01C0970A9708F4BACFEE32F10523
:1003500009F048C0BB2009F4B3CFAA2041F0F094C3
:10036000E094D094C094C11CD11CE11CF11CC701C5
:10037000B6010E94640ABB2069F098014E815D813C
:1003800069837A838B839C8369817A818B819C8149
:100390000E94C30A69837A838B839C8369817A81F3
:1003A0008B819C8126960FB6F894DEBF0FBECDBF21
:1003B000DF91CF911F910F91FF90EF90DF90CF9041
:1003C000BF90AF900895EE32F10509F46ECF88E446
:1003D00091E00E94D8005DCFAA24A394ACCFBB24A7
:1003E000B394A9CFE130F10509F46ACFB6CF60E04C
:1003F00070E080E090E0CECFFC01818D228D90E016
:10040000805C9F4F821B91098F739927089588E420
:1004100091E00E94FC019C0181E0232B09F480E023
:10042000089580E090E0892B29F00E940702811155
:100430000C9400000895FC01A48DA80FB92FB11DE4
:10044000A35ABF4F2C91848D90E001968F7399270A
:10045000848FA689B7892C93A089B1898C918064F7
:100460008C93938D848D981306C00288F389E02DB8
:1004700080818F7D80830895EF92FF920F931F9369
:10048000CF93DF93EC01F62E81E0888F9B8D8C8DCE
:10049000981316C0E889F989808185FF11C0EE891B
:1004A000FF896083E889F98980818064808381E0A5
:1004B00090E0DF91CF911F910F91FF90EF90089501
:1004C0000B8D10E00F5F1F4F0F731127E02E8C8DE7
:1004D0008E110CC00FB607FCFACFE889F98980812C
:1004E00085FFF5CFCE010E941B02F1CFEB8DEC0F03
:1004F000FD2FF11DE35AFF4FF0820B8FEA89FB8934
:1005000080818062D3CF682F88E491E00C943C0214
:10051000CF93DF93EC01888D8823B9F0AA89BB893A
:10052000E889F9898C9185FD03C0808186FD0DC025
:100530000FB607FCF7CF8C9185FFF2CF808185FF46
:10054000EDCFCE010E941B02E9CFDF91CF9108953C
:10055000CF93DF9300D000D0CDB7DEB73FB7F8948C
:100560008091370190913801A0913901B0913A0101
:1005700026B5A89B05C02F3F19F00196A11DB11DFE
:100580003FBFBA2FA92F982F8827820F911DA11D39
:10059000B11D9C01AD0162E0220F331F441F551FA6
:1005A0006A95D1F7CA01B9010F900F900F900F9083
:1005B000DF91CF9108958F929F92AF92BF92CF9289
:1005C000DF92EF92FF92CF93DF9300D000D0CDB7B0
:1005D000DEB76B017C010E94A8024B015C01C114D3
:1005E000D104E104F104C9F00E94A802DC01CB01AE
:1005F00088199909AA09BB09883E9340A105B1054C
:1006000070F321E0C21AD108E108F10888EE880EE3
:1006100083E0981EA11CB11CE2CF0F900F900F90A9
:100620000F90DF91CF91FF90EF90DF90CF90BF9030
:10063000AF909F908F900895BC01009761F0FC01EE
:1006400001900020E9F73197AF01481B590B88E46E
:1006500091E00C94A00090E080E008952F923F92EA
:100660004F925F926F927F928F929F92AF92BF92C2
:10067000CF92DF92EF92FF920F931F93CF93DF936E
:10068000CDB7DEB7AC970FB6F894DEBF0FBECDBFC7
:100690008B019C010AA31BA32CA33DA3F42EAC0148
:1006A0009B010E949F0D8823F9F086E191E00E9452
:1006B0001C038C01C801AC960FB6F894DEBF0FBEC8
:1006C000CDBFDF91CF911F910F91FF90EF90DF9001
:1006D000CF90BF90AF909F908F907F906F905F90E2
:1006E0004F903F902F9008958AA19BA1ACA1BDA1EE
:1006F000BF778EA39FA3A8A7B9A72FEF3FEF4FE720
:100700005FE7BC01CD010E949F0D81110FC02FEF4B
:100710003FEF4FE75FE76EA17FA188A599A50E94F3
:100720005D0A18161CF48AE191E0C1CF2FEF3FEF6C
:100730004FE75FE46AA17BA18CA19DA10E944A0DB5
:1007400018161CF48EE191E0B2CF2FEF3FEF4FE788
:100750005FEC6AA17BA18CA19DA10E945D0A87FD2F
:10076000F1CF20E030E0A9016AA17BA18CA19DA17D
:100770000E945D0A87FF25C08DE20E9483028AA73E
:100780009BA78AA19BA1ACA1BDA1B0588AA39BA3A2
:10079000ACA3BDA310E060E070E080E09FE3F11641
:1007A00099F020E030E040E251E46EA37FA388A7F7
:1007B00099A76EA17FA188A599A50E94680C1F5FCB
:1007C000EECF1BA61AA6E6CF2AA13BA14CA15DA1A4
:1007D0006AA37BA38CA39DA36AA17BA18CA19DA1ED
:1007E0000E94E50B6AA37BA38CA39DA36AA17BA1B6
:1007F0008CA19DA10E94DA0C962EA72E8C010E943E
:10080000620A9B01AC016AA17BA18CA19DA10E94FF
:10081000E40BB62EC72ED82EE92E19A23E0191E286
:10082000690E711C6CA6872C9AE0292E312C412C64
:10083000512C692D7A2DC801A20191010E94B30BA0
:10084000892D9A2DD801922EA32E8A01605DF30185
:1008500062933F010A97A105B10558F7CF010E94A5
:100860001C030AA51BA5080F191FFF2029F08EE203
:100870000E948302080F191F8AE0482E512C612C18
:10088000712CFA94FFEFFF1609F414CF20E030E04A
:1008900040E251E4BAA2CBA2DCA2EDA26AA17BA104
:1008A0008CA19DA10E94C30A962EA72EB82EE92ED8
:1008B0006AA37BA38CA39DA36AA17BA18CA19DA10C
:1008C0000E94DA0C6EA37FA388A799A7AEA1BFA14F
:1008D000CD01B0E0A0E08AA39BA3ACA3BDA319A265
:1008E000CCA4D82C6AA17BA18CA19DA1A3019201CB
:1008F0000E94B30B8AA19BA1ACA1BDA12AA33BA3DB
:100900004CA35DA3605DF60162936F010A97A10598
:10091000B10540F7CF010E941C03080F191FAEA1BB
:10092000BFA1CD01B0E0A0E08AA39BA3ACA3BDA36F
:10093000BC01CD010E94620A9B01AC019AA2ABA24C
:10094000BCA2EDA26AA17BA18CA19DA10E94E40B97
:10095000B62EC72ED82EE92E94CF1F920F920FB627
:100960000F9211242F933F934F935F936F937F9335
:100970008F939F93AF93BF93EF93FF9388E491E09E
:100980000E941B02FF91EF91BF91AF919F918F91B8
:100990007F916F915F914F913F912F910F900FBE7B
:1009A0000F901F9018952F932FB72F938F939F938E
:1009B000EF93FF93E0915801F09159018081E0910C
:1009C0005E01F0915F0182FD19C09081809161010B
:1009D0008F5F8F7320916201821741F0E091610176
:1009E000F0E0E85BFE4F958F80936101FF91EF91FE
:1009F0009F918F912F912FBF2F9118958081F6CFC6
:100A00001F921FB61F9211242F933F938F939F9392
:100A1000AF93BF938091440190914501A09146010D
:100A2000B09147013091360123E0230F2D3750F567
:100A30000196A11DB11D209336018093440190932E
:100A40004501A0934601B0934701809137019091F1
:100A50003801A0913901B0913A010196A11DB11D53
:100A60008093370190933801A0933901B0933A01F4
:100A7000BF91AF919F918F913F912F911F901FBE7A
:100A80001F90189526E8230F0296A11DB11DD3CF04
:100A9000E8E4F1E01382128288EE93E0A0E0B0E097
:100AA00084839583A683B78388E091E091838083D4
:100AB00085EC90E09587848784EC90E09787868723
:100AC00080EC90E0918B808B81EC90E0938B828B1B
:100AD00082EC90E0958B848B86EC90E0978B868BF4
:100AE000118E128E138E148E80E090E0A0E4BFE38E
:100AF0008093E9019093EA01A093EB01B093EC019C
:100B00008EED9DEBAAECBDE38093E5019093E601A9
:100B1000A093E701B093E8010895CDB7DEB7AC9795
:100B20000FB6F894DEBF0FBECDBF789484B5826057
:100B300084BD84B5816084BD85B5826085BD85B581
:100B4000816085BD80916E00816080936E001092FF
:100B5000810080918100826080938100809181007A
:100B6000816080938100809180008160809380000B
:100B70008091B10084608093B1008091B000816069
:100B80008093B00080917A00846080937A00809195
:100B90007A00826080937A0080917A0081608093ED
:100BA0007A0080917A00806880937A001092C10068
:100BB000E0915801F091590182E08083E091540165
:100BC000F09155011082E0915601F09157018FECA0
:100BD000808310926001E0915C01F0915D0186E0FC
:100BE0008083E0915A01F0915B0180818061808374
:100BF000E0915A01F0915B01808188608083E091EF
:100C00005A01F0915B01808180688083E0915A01F4
:100C1000F0915B0180818F7D808382E291E00E9470
:100C20001C0382E391E00E941C0388E491E00E948F
:100C3000FC01892BD9F080914301811122C00E94CF
:100C40003A0160933F01709340018093410190937A
:100C500042010E943A0160933B0170933C018093F2
:100C60003D0190933E0121E020934301A0E0B0E0DC
:100C7000AB2BD9F20E9407028823B9F20E94000030
:100C8000D4CF8FB7F8942091440130914501409121
:100C900046015091470129833A834B835C838FBF80
:100CA00069817A818B819C810E94620A6BA37CA3FB
:100CB0008DA39EA30E943A010E943A016B8B7C8B0C
:100CC0008D8B9E8B0E943A016F8B788F898F9A8FC4
:100CD0000E943A016B8F7C8F8D8F9E8F2AE037EDBB
:100CE00043E25CE369837A839D8D9B83AE8DAC8305
:100CF00069817A818B819C810E94680C69837A83E7
:100D00008B839C8369817A818B819C810E94510CA9
:100D10006FA378A789A79AA72091E9013091EA01EA
:100D20004091EB015091EC0129873A874B875C8712
:100D30008091E5019091E601A091E701B091E80171
:100D40008D879E87AF87B88B00913B0110913C0146
:100D500090913D019CA7A0913E01ABA7E0903F017F
:100D6000F090400140904101509042011E821D824E
:100D70002D813E81032E000C440B550B29833A83B1
:100D80004B835C83CA01B9010E94640A2FA138A574
:100D900049A55AA569837A838B839C8369817A816B
:100DA0008B819C810E945D0A18160CF4B4C12985C0
:100DB0003A854B855C85CA01B9010E94C30A2BEDB7
:100DC0003FE049E450E469837A838B839C836981A3
:100DD0007A818B819C810E94C30A6F8F78A389A33B
:100DE0009AA329853A854B855C8560E070E080E0B8
:100DF0009FE30E94680C6B01382E292E98014CA5A8
:100E00005BA56983DA828B839C8369817A818B817C
:100E10009C810E94E50B4B015C0120E030E040E04A
:100E20005FE309831A838CA58B839BA59C836981CF
:100E30007A818B819C810E944F0D698B7A8B3C015A
:100E40009401A50189829A82AB82BC8269817A81F0
:100E50008B819C810E94C30A2F8D38A149A15AA180
:100E600069837A838B839C8369817A818B819C815E
:100E70000E94C30A9B01AC0160E070E080E89FE340
:100E80000E94680C4B015C012D853E854F85588979
:100E9000A989A983BA89BA836B827C8269817A81A4
:100EA0008B819C810E94C30A9B01AC018F8989833D
:100EB000988D9A83A98DAB83BA8DBC8369817A8121
:100EC0008B819C810E94E40B9B01AC0189829A82F8
:100ED000AB82BC8269817A818B819C810E94C30A2A
:100EE0002AE037ED43E25CE369837A838B839C835A
:100EF00069817A818B819C810E94C30A9B01AC012C
:100F000009831A838CA58B839BA59C8369817A8135
:100F10008B819C810E94E50B8B018CA79BA720E015
:100F200030E0A90169831A838B839C8369817A816C
:100F30008B819C810E945D0A87FDE3C020E030E048
:100F400040E850E469817A818B819C810E944A0D3E
:100F5000181634F400E010E020E82CA730E43BA79A
:100F60009701A201C982DA823B822C8269817A814F
:100F70008B819C810E94E50B5B016C0120E030E0DD
:100F800040E05FE309831A838CA58B839BA59C8338
:100F900069817A818B819C810E944F0D3B014C01BC
:100FA00020E030E040E05FE3E982FA824B825C823D
:100FB00069817A818B819C810E944F0D1B01898BF5
:100FC0009A8B9301A4016D857E858F8598890E94F7
:100FD000C30A2B893C894D895E8969837A838B8317
:100FE0009C8369817A818B819C810E94E50B3B0106
:100FF0004C01910149895A896D857E858F85988933
:101000000E94C30A9B01AC0169827A828B829C8216
:1010100069817A818B819C810E94E40B3B014C01A8
:101020009501A601A982BA82CB82DC8269817A818C
:101030008B819C810E94C30A2F8D38A149A15AA19E
:1010400069837A838B839C8369817A818B819C817C
:101050000E94C30A9B01AC0160E070E080E89FE35E
:101060000E94680C9B01AC0169827A828B829C820F
:1010700069817A818B819C810E94C30A2AE037EDC5
:1010800043E25CE369837A838B839C8369817A8101
:101090008B819C810E94C30A9B01AC01E982FA8288
:1010A0004B825C8269817A818B819C810E94E50BF5
:1010B0007B012C0120E030E0A9016983FA828B8357
:1010C0005C8269817A818B819C810E945D0A87FDA7
:1010D0001DC020E030E040E850E469817A818B81D6
:1010E0009C810E944A0D181634F4E12CF12C80E802
:1010F000482E90E4592EAD81BE811196BE83AD83FA
:1011000037CE00E010E01CA61BA62ACFE12CF12C64
:10111000412C512CF0CFC801ACA5BBA580933B015D
:1011200090933C01A0933D01B0933E01C701D201D1
:1011300080933F0190934001A0934101B0934201FD
:101140008FB7F894209144013091450140914601B8
:10115000509147012D833E834F8358878FBF20E0F6
:1011600030E04AE754E48B8D89839C8D9A83AD8D62
:10117000AB83BE8DBC8369817A818B819C810E9407
:10118000C30A8B018D8799876D817E818F819885B8
:101190000E94620A2BA13CA14DA15EA169837A83C2
:1011A0008B839C8369817A818B819C810E94E40B73
:1011B0009B01AC0109831A838D858B8399859C8360
:1011C00069817A818B819C810E94E40B6B017C0197
:1011D00020E030E0A9016983DA828B83FC82698197
:1011E0007A818B819C810E944A0D87FDB5C06981FF
:1011F0007A818B819C810E94DA0C0E94DB020E9422
:10120000050A24E130E040E050E00E94810B9B01A0
:10121000AC012A5031094109510929833A834B8392
:101220005C83CA01B9010E94640A20E030E040EA10
:1012300052E469837A838B839C8369817A818B8171
:101240009C810E94680C20913F01309140014091A7
:1012500041015091420169837A838B839C83698128
:101260007A818B819C810E94E50B42E069837A83BD
:101270008B839C8369817A818B819C810E942E0360
:1012800086E20E9483020E94050A24E130E040E0E9
:1012900050E00E94810BDC01CB010A97A109B10942
:1012A00089839A83AB83BC83BC01CD010E94640A0D
:1012B00020E030E040EA52E469837A838B839C83A8
:1012C00069817A818B819C810E94680C20913B010D
:1012D00030913C0140913D0150913E0169837A83F8
:1012E0008B839C8369817A818B819C810E94E50B31
:1012F00042E069837A838B839C8369817A818B81C5
:101300009C810E942E0386E20E94830242E09B8918
:101310009983AC89AA83BD89BB832E892C8369817B
:101320007A818B819C810E942E0386E20E94830237
:1013300042E03F893983588D5A83898D8B839A8DFA
:101340009C8369817A818B819C810E942E0382E338
:1013500091E00E941C038ACC09831A83AD85AB837C
:10136000B985BC8344CFEE0FFF1F0590F491E02DAB
:1013700009948F929F92AF92BF92CF92DF92EF9299
:10138000FF92CF93DF93EC01688179818A819B8101
:10139000611571058105910521F464E279ED8BE514
:1013A00097E02DE133EF41E050E00E94810B4901CD
:1013B0005A019B01AC01A7EAB1E40E94A00B6B01AA
:1013C0007C01ACEEB4EFA50194010E94AE0BC60EF9
:1013D000D71EE81EF91EF7FE06C081E0C81AD10824
:1013E000E10880E8F80AC882D982EA82FB82C70154
:1013F000B6019F77DF91CF91FF90EF90DF90CF9074
:10140000BF90AF909F908F9008958F929F92AF92D0
:10141000BF92CF92DF92EF92FF92609100017091A4
:10142000010180910201909103016115710581050F
:10143000910521F464E279ED8BE597E02DE133EF3E
:1014400041E050E00E94810B49015A019B01AC012F
:10145000A7EAB1E40E94A00B6B017C01ACEEB4EFF3
:10146000A50194010E94AE0BC60ED71EE81EF91E00
:10147000F7FE06C081E0C81AD108E10880E8F80A42
:10148000C0920001D0920101E0920201F0920301AA
:10149000C701B6019F77FF90EF90DF90CF90BF908C
:1014A000AF909F908F900895609300017093010119
:1014B000809302019093030108950E949F0A08F40B
:1014C00081E00895E89409C097FB3EF490958095DB
:1014D000709561957F4F8F4F9F4F9923A9F0F92FFA
:1014E00096E9BB279395F695879577956795B79578
:1014F000F111F8CFFAF4BB0F11F460FF1BC06F5F5E
:101500007F4F8F4F9F4F16C0882311F096E911C06F
:10151000772321F09EE8872F762F05C0662371F090
:1015200096E8862F70E060E02AF09A95660F771FA4
:10153000881FDAF7880F9695879597F90895990F80
:101540000008550FAA0BE0E8FEEF16161706E8078D
:10155000F907C0F012161306E407F50798F0621BAE
:10156000730B840B950B39F40A2661F0232B242B83
:10157000252B21F408950A2609F4A140A6958FEFA2
:10158000811D811D08950E94D60A0C94470B0E946C
:10159000390B38F00E94400B20F0952311F00C9489
:1015A000300B0C94360B11240C947B0B0E94580BBF
:1015B00070F3959FC1F3950F50E0551F629FF001A6
:1015C000729FBB27F00DB11D639FAA27F00DB11DBF
:1015D000AA1F649F6627B00DA11D661F829F222748
:1015E000B00DA11D621F739FB00DA11D621F839FCF
:1015F000A00D611D221F749F3327A00D611D231FA5
:10160000849F600D211D822F762F6A2F11249F57F2
:1016100050409AF0F1F088234AF0EE0FFF1FBB1FF5
:10162000661F771F881F91505040A9F79E3F5105B4
:1016300080F00C94300B0C947B0B5F3FE4F3983EEE
:10164000D4F3869577956795B795F795E7959F5F5E
:10165000C1F7FE2B880F911D9695879597F90895F0
:1016600097F99F6780E870E060E008959FEF80EC55
:10167000089500240A9416161706180609060895F8
:1016800000240A9412161306140605060895092E5E
:101690000394000C11F4882352F0BB0F40F4BF2BCD
:1016A00011F460FF04C06F5F7F4F8F4F9F4F08950D
:1016B00057FD9058440F551F59F05F3F71F0479503
:1016C000880F97FB991F61F09F3F79F087950895E8
:1016D000121613061406551FF2CF4695F1DF08C007
:1016E000161617061806991FF1CF86957105610524
:1016F00008940895E894BB2766277727CB0197F9CC
:101700000895052E97FB1EF400940E94980B57FD38
:1017100007D00E94B30B07FC03D04EF40C94980B37
:1017200050954095309521953F4F4F4F5F4F08950D
:1017300090958095709561957F4F8F4F9F4F08953D
:101740000E94D50BA59F900DB49F900DA49F800D76
:10175000911D11240895B7FF0C94A00B0E94A00BBB
:10176000821B930B0895A1E21A2EAA1BBB1BFD013D
:101770000DC0AA1FBB1FEE1FFF1FA217B307E40770
:10178000F50720F0A21BB30BE40BF50B661F771FC8
:10179000881F991F1A9469F76095709580959095A8
:1017A0009B01AC01BD01CF010895A29FB001B39F81
:1017B000C001A39F700D811D1124911DB29F700D5A
:1017C000811D1124911D08955058BB27AA270E94FE
:1017D000FC0B0C94470B0E94390B38F00E94400B15
:1017E00020F039F49F3F19F426F40C94360B0EF4D4
:1017F000E095E7FB0C94300BE92F0E94580B58F34F
:10180000BA17620773078407950720F079F4A6F5E5
:101810000C947A0B0EF4E0950B2EBA2FA02D0B0131
:10182000B90190010C01CA01A0011124FF27591B25
:1018300099F0593F50F4503E68F11A16F040A22F2B
:10184000232F342F4427585FF3CF4695379527959C
:10185000A795F0405395C9F77EF41F16BA0B620B9B
:10186000730B840BBAF09150A1F0FF0FBB1F661FE2
:10187000771F881FC2F70EC0BA0F621F731F841F25
:1018800048F4879577956795B795F7959E3F08F04B
:10189000B0CF9395880F08F09927EE0F979587950D
:1018A00008950E94320D90F09F3748F4911116F47C
:1018B0000C947B0B60E070E080E89FE3089526F0D5
:1018C0001B16611D711D811D0C94090D0C94240DB6
:1018D0000E947C0C0C94470B0E94400B58F00E9415
:1018E000390B40F029F45F3F29F00C94300B511173
:1018F0000C947B0B0C94360B0E94580B68F39923C5
:10190000B1F3552391F3951B550BBB27AA276217FB
:101910007307840738F09F5F5F4F220F331F441F08
:10192000AA1FA9F335D00E2E3AF0E0E832D091503C
:101930005040E695001CCAF72BD0FE2F29D0660F29
:10194000771F881FBB1F261737074807AB07B0E86C
:1019500009F0BB0B802DBF01FF2793585F4F3AF072
:101960009E3F510578F00C94300B0C947B0B5F3F3D
:10197000E4F3983ED4F3869577956795B795F795F8
:101980009F5FC9F7880F911D9695879597F90895E0
:10199000E1E0660F771F881FBB1F6217730784077C
:1019A000BA0720F0621B730B840BBA0BEE1F88F78B
:1019B000E09508950E94600B88F09F5798F0B92F2A
:1019C0009927B751B0F0E1F0660F771F881F991F74
:1019D0001AF0BA95C9F714C0B13091F00E947A0B91
:1019E000B1E008950C947A0B672F782F8827B85FA1
:1019F00039F0B93FCCF3869577956795B395D9F7CC
:101A00003EF490958095709561957F4F8F4F9F4FD5
:101A10000895882371F4772321F09850872B762F2F
:101A200007C0662311F499270DC09051862B70E0F2
:101A300060E02AF09A95660F771F881FDAF7880F03
:101A40009695879597F908959F3F31F0915020F42E
:101A5000879577956795B795880F911D969587958A
:101A600097F908950E94600BA0F0BEE7B91788F4BB
:101A7000BB279F3860F41616B11D672F782F882773
:101A8000985FF7CF869577956795B11D93959639B1
:101A9000C8F308950E949F0A08F48FEF0895FA0191
:101AA000EE0FFF1F309621053105A1F1611571057B
:101AB00061F48038BFE39B0749F168949038810551
:101AC00061F08038BFEF9B0741F099234AF5FF3F53
:101AD000E1053105210519F1E8940894E795D9014C
:101AE000AA2329F4AB2FBE2FF85FD0F310C0FF5FFD
:101AF00070F4A695E0F7F73950F019F0FF3A38F492
:101B00009F779F930DD00F9007FC9058089546F053
:101B10000C94360B60E070E080E89FE308954FE797
:101B20009F775F934F933F932F930E944F0E2F9178
:101B30003F914F915F910E94C30A0C94AC0D0E949B
:101B40009F0A880B990B089529F416F00C94300B1A
:101B50000C947A0B0C94360B0E94600BA8F3963809
:101B6000A0F707F80F92E8942BE33AEA48EB5FE717
:101B70000E94D90A0F920F920F924DB75EB70F9243
:101B80000E94970EE8E6F0E00E94DE0D4F915F9113
:101B9000EF91FF91E595EE1FFF1F49F0FE57E068BA
:101BA0004427EE0F441FFA95E1F74195550B0E942B
:101BB000110E0F9007FE0C94050E0895DF93CF933E
:101BC0001F930F93FF92EF92DF927B018C01689439
:101BD00006C0DA2EEF010E94D60AFE01E894A59114
:101BE0002591359145915591A6F3EF010E94FC0B8B
:101BF000FE019701A801DA9469F7DF90EF90FF905A
:101C00000F911F91CF91DF9108959B01AC0160E08E
:101C100070E080E89FE30C94680C0C94300B0C94FB
:101C2000240D0E94600BD8F39923C9F3940F511D22
:101C3000A3F39150504094F059F0882332F0660F8E
:101C4000771F881F91505040C1F79E3F51052CF7D8
:101C5000880F911D9695879597F908955F3FACF091
:101C6000983E9CF0BB27869577956795B79508F4C5
:101C7000B1609395C1F7BB0F58F711F460FFE8CF3F
:101C80006F5F7F4F8F4F9F4FE3CF0C947B0B16F00E
:101C90000C94240D0C94360B68940C94300B0E9419
:101CA000600BA8F39923C1F3AEF3DF93CF931F9397
:101CB0000F93FF92C92FDD2788232AF02197660F03
:101CC000771F881FDAF720E030E040E85FEB9FE302
:101CD000883920F0803E38F021968F770E94E50BFE
:101CE000E0E9F0E004C00E94E50BEDEBF0E00E94BB
:101CF000DE0D8B01BE01EC01FB2E6F57710975954E
:101D0000771F880B990B0E94640A28E132E741E3B0
:101D10005FE30E94D60AAF2D9801AE01FF900F91AC
:101D20001F91CF91DF910E94FC0B0C94470BFA019D
:101D3000DC01AA0FBB1F9B01AC01BF5728F422276F
:101D400033274427507820C0B75190F4AB2F00249C
:101D5000469537952795011CA395D2F3002071F085
:101D6000220F331F441FB395DAF30ED00C94E40B0B
:101D700061307105A0E88A07B94630F49B01AC01D7
:101D80006627772788279078309621F02083318343
:0A1D9000428353830895F894FFCFB7
:101D9A0001000000000000003C02A000C900880207
:101DAA00FC01D800EC006E616E00696E66006F7609
:101DBA006600496E697469616C697A696E672E2E6C
:061DCA002E000D0A0000CE
:00000001FF
