:100000000C9476000C949E000C949E000C949E0020
:100010000C949E000C949E000C949E000C949E00E8
:100020000C949E000C949E000C949E000C949E00D8
:100030000C949E000C949E000C949E000C949E00C8
:100040000C9400050C949E000C94D3040C94AD0405
:100050000C949E000C949E000C949E000C949E00A8
:100060000C949E000C949E0007634236B79BD8A761
:100070001A39685618AEBAAB558C1D3CB7CC5763CD
:10008000BD6DEDFD753EF6177231BF000000803F7B
:1000900008000000BE922449123EABAAAA2ABECD97
:1000A000CCCC4C3E00000080BEABAAAAAA3E000009
:1000B0000000BF000000803F000000000008417801
:1000C000D3BB4387D1133D190E3CC3BD4282AD2B38
:1000D0003E68EC8276BED98FE1A93E4C80EFFFBE30
:1000E00001C4FF7F3F0000000000340A11241FBE3E
:1000F000CFEFD8E0DEBFCDBF11E0A0E0B1E0E6EF8A
:10010000FEE102C005900D92A633B107D9F721E0B8
:10011000A6E3B1E001C01D92A93EB207E1F710E0ED
:10012000C6E7D0E004C02197FE010E94610AC537EE
:10013000D107C9F70E9448050C94790F0C94000070
:10014000CF92DF92EF92FF920F931F93CF93DF93A3
:100150007C016A0110E000E00C151D0581F0EB0147
:10016000D701ED91FC910190F081E02D6991C701DB
:100170000995892B21F00F5F1F4FBE01EDCFC801FC
:10018000DF91CF911F910F91FF90EF90DF90CF9073
:100190000895FC01538D448D252F30E0842F90E08D
:1001A000821B930B541710F0CF9608950197089572
:1001B000FC01918D828D981761F0A28DAE0FBF2F3B
:1001C000B11D5D968C91928D9F5F9F73928F90E091
:1001D00008958FEF9FEF0895FC01918D828D981700
:1001E00031F0828DE80FF11D858D90E008958FEF3D
:1001F0009FEF08952FB7F89480914801909149019D
:10020000A0914A01B0914B012FBF8093540190936C
:100210005501A0935601B09357018CE491E00E94E0
:10022000EC0097FF26C02FB7F89480914801909179
:100230004901A0914A01B0914B012FBF4091540157
:10024000509155016091560170915701841B950B97
:10025000A60BB70B40915001509151016091520192
:100260007091530184179507A607B707B0F28FEF77
:100270009FEF0895AF92BF92CF92DF92EF92FF92DD
:100280000F931F93CF93DF9300D000D000D0CDB752
:10029000DEB70E94FA00FC0197FDA9C08D329105DE
:1002A00021F0C0970A9708F08EC000E010E080E8C7
:1002B0008E839FE39D83C12CD12C7601B12CA12C80
:1002C000E130F105C1F1ED32F10509F485C0EE32FE
:1002D000F10509F484C0CF01C0970A9760F5AAE040
:1002E000B0E0A70196010E944E0C69837A838B834C
:1002F0009C836F01FF0FEE08FF08C60ED71EE81E95
:10030000F91EA0E3CA1AD108E108F108BB2099F050
:100310002DEC3CEC4CEC5DE309831A83BE81BB837E
:100320008D818C8369817A818B819C810E94710B84
:100330008B018E839D838CE491E00E94D8000E9403
:10034000FA00FC01C0970A9708F4BACFEE32F10523
:1003500009F048C0BB2009F4B3CFAA2041F0F094C3
:10036000E094D094C094C11CD11CE11CF11CC701C5
:10037000B6010E94120BBB2069F098014E815D818D
:1003800069837A838B839C8369817A818B819C8149
:100390000E94710B69837A838B839C8369817A8144
:1003A0008B819C8126960FB6F894DEBF0FBECDBF21
:1003B000DF91CF911F910F91FF90EF90DF90CF9041
:1003C000BF90AF900895EE32F10509F46ECF8CE442
:1003D00091E00E94D8005DCFAA24A394ACCFBB24A7
:1003E000B394A9CFE130F10509F46ACFB6CF60E04C
:1003F00070E080E090E0CECFFC01818D228D90E016
:10040000805C9F4F821B91098F73992708958CE41C
:1004100091E00E94FC019C0181E0232B09F480E023
:10042000089580E090E0892B29F00E940702811155
:100430000C9400000895FC01A48DA80FB92FB11DE4
:10044000A35ABF4F2C91848D90E001968F7399270A
:10045000848FA689B7892C93A089B1898C918064F7
:100460008C93938D848D981306C00288F389E02DB8
:1004700080818F7D80830895EF92FF920F931F9369
:10048000CF93DF93EC01F62E81E0888F9B8D8C8DCE
:10049000981316C0E889F989808185FF11C0EE891B
:1004A000FF896083E889F98980818064808381E0A5
:1004B00090E0DF91CF911F910F91FF90EF90089501
:1004C0000B8D10E00F5F1F4F0F731127E02E8C8DE7
:1004D0008E110CC00FB607FCFACFE889F98980812C
:1004E00085FFF5CFCE010E941B02F1CFEB8DEC0F03
:1004F000FD2FF11DE35AFF4FF0820B8FEA89FB8934
:1005000080818062D3CF682F8CE491E00C943C0210
:10051000CF93DF93EC01888D8823B9F0AA89BB893A
:10052000E889F9898C9185FD03C0808186FD0DC025
:100530000FB607FCF7CF8C9185FFF2CF808185FF46
:10054000EDCFCE010E941B02E9CFDF91CF9108953C
:10055000CF93DF9300D000D0CDB7DEB73FB7F8948C
:100560008091370190913801A0913901B0913A0101
:1005700026B5A89B05C02F3F19F00196A11DB11DFE
:100580003FBFBA2FA92F982F8827820F911DA11D39
:10059000B11D9C01AD0162E0220F331F441F551FA6
:1005A0006A95D1F7CA01B9010F900F900F900F9083
:1005B000DF91CF9108958F929F92AF92BF92CF9289
:1005C000DF92EF92FF92CF93DF9300D000D0CDB7B0
:1005D000DEB76B017C010E94A8024B015C01C114D3
:1005E000D104E104F104C9F00E94A802DC01CB01AE
:1005F00088199909AA09BB09883E9340A105B1054C
:1006000070F321E0C21AD108E108F10888EE880EE3
:1006100083E0981EA11CB11CE2CF0F900F900F90A9
:100620000F90DF91CF91FF90EF90DF90CF90BF9030
:10063000AF909F908F900895BC01009761F0FC01EE
:1006400001900020E9F73197AF01481B590B8CE46A
:1006500091E00C94A00090E080E008952F923F92EA
:100660004F925F926F927F928F929F92AF92BF92C2
:10067000CF92DF92EF92FF920F931F93CF93DF936E
:10068000CDB7DEB7AC970FB6F894DEBF0FBECDBFC7
:100690008B019C010AA31BA32CA33DA3F42EAC0148
:1006A0009B010E944D0E8823F9F086E191E00E94A3
:1006B0001C038C01C801AC960FB6F894DEBF0FBEC8
:1006C000CDBFDF91CF911F910F91FF90EF90DF9001
:1006D000CF90BF90AF909F908F907F906F905F90E2
:1006E0004F903F902F9008958AA19BA1ACA1BDA1EE
:1006F000BF778EA39FA3A8A7B9A72FEF3FEF4FE720
:100700005FE7BC01CD010E944D0E81110FC02FEF9C
:100710003FEF4FE75FE76EA17FA188A599A50E94F3
:100720000B0B18161CF48AE191E0C1CF2FEF3FEFBD
:100730004FE75FE46AA17BA18CA19DA10E94F80D07
:1007400018161CF48EE191E0B2CF2FEF3FEF4FE788
:100750005FEC6AA17BA18CA19DA10E940B0B87FD80
:10076000F1CF20E030E0A9016AA17BA18CA19DA17D
:100770000E940B0B87FF25C08DE20E9483028AA78F
:100780009BA78AA19BA1ACA1BDA1B0588AA39BA3A2
:10079000ACA3BDA310E060E070E080E09FE3F11641
:1007A00099F020E030E040E251E46EA37FA388A7F7
:1007B00099A76EA17FA188A599A50E94160D1F5F1C
:1007C000EECF1BA61AA6E6CF2AA13BA14CA15DA1A4
:1007D0006AA37BA38CA39DA36AA17BA18CA19DA1ED
:1007E0000E94930C6AA37BA38CA39DA36AA17BA107
:1007F0008CA19DA10E94880D962EA72E8C010E948F
:10080000100B9B01AC016AA17BA18CA19DA10E9450
:10081000920CB62EC72ED82EE92E19A23E0191E2D7
:10082000690E711C6CA6872C9AE0292E312C412C64
:10083000512C692D7A2DC801A20191010E94610CF1
:10084000892D9A2DD801922EA32E8A01605DF30185
:1008500062933F010A97A105B10558F7CF010E94A5
:100860001C030AA51BA5080F191FFF2029F08EE203
:100870000E948302080F191F8AE0482E512C612C18
:10088000712CFA94FFEFFF1609F414CF20E030E04A
:1008900040E251E4BAA2CBA2DCA2EDA26AA17BA104
:1008A0008CA19DA10E94710B962EA72EB82EE92E29
:1008B0006AA37BA38CA39DA36AA17BA18CA19DA10C
:1008C0000E94880D6EA37FA388A799A7AEA1BFA1A0
:1008D000CD01B0E0A0E08AA39BA3ACA3BDA319A265
:1008E000CCA4D82C6AA17BA18CA19DA1A3019201CB
:1008F0000E94610C8AA19BA1ACA1BDA12AA33BA32C
:100900004CA35DA3605DF60162936F010A97A10598
:10091000B10540F7CF010E941C03080F191FAEA1BB
:10092000BFA1CD01B0E0A0E08AA39BA3ACA3BDA36F
:10093000BC01CD010E94100B9B01AC019AA2ABA29D
:10094000BCA2EDA26AA17BA18CA19DA10E94920CE8
:10095000B62EC72ED82EE92E94CF1F920F920FB627
:100960000F9211242F933F934F935F936F937F9335
:100970008F939F93AF93BF93EF93FF938CE491E09A
:100980000E941B02FF91EF91BF91AF919F918F91B8
:100990007F916F915F914F913F912F910F900FBE7B
:1009A0000F901F9018952F932FB72F938F939F938E
:1009B000EF93FF93E0915C01F0915D018081E09104
:1009C0006201F091630182FD19C0908180916501FF
:1009D0008F5F8F7320916601821741F0E09165016E
:1009E000F0E0E45BFE4F958F80936501FF91EF91FE
:1009F0009F918F912F912FBF2F9118958081F6CFC6
:100A00001F921FB61F9211242F933F938F939F9392
:100A1000AF93BF938091480190914901A0914A0101
:100A2000B0914B013091360123E0230F2D3750F563
:100A30000196A11DB11D209336018093480190932A
:100A40004901A0934A01B0934B01809137019091E5
:100A50003801A0913901B0913A010196A11DB11D53
:100A60008093370190933801A0933901B0933A01F4
:100A7000BF91AF919F918F913F912F911F901FBE7A
:100A80001F90189526E8230F0296A11DB11DD3CF04
:100A9000CDB7DEB7AA970FB6F894DEBF0FBECDBFB5
:100AA000789484B5826084BD84B5816084BD85B549
:100AB000826085BD85B5816085BD80916E00816055
:100AC00080936E00109281008091810082608093FB
:100AD00081008091810081608093810080918000FD
:100AE0008160809380008091B10084608093B10028
:100AF0008091B00081608093B00080917A00846022
:100B000080937A0080917A00826080937A0080914D
:100B10007A00816080937A0080917A008068809367
:100B20007A001092C100E0915C01F0915D0182E0D9
:100B30008083E0915801F09159011082E0915A01AF
:100B4000F0915B018FEC808310926401E091600171
:100B5000F091610186E08083E0915E01F0915F0198
:100B6000808180618083E0915E01F0915F018081EE
:100B700088608083E0915E01F0915F0180818068F0
:100B80008083E0915E01F0915F0180818F7D8083A1
:100B900082E291E00E941C0382E391E00E941C0328
:100BA0008CE491E00E94FC01892B29F1809147019E
:100BB00081112CC00E943A0160934301709344015B
:100BC00080934501909346010E943A0160933F0152
:100BD0007093400180934101909342010E943A0139
:100BE00060933B0170933C0180933D0190933E01E3
:100BF00021E02093470140E050E0452B89F20E941C
:100C00000702882369F20E940000CACF8FB7F894C8
:100C1000209148013091490140914A0150914B0186
:100C20002D833E834F8358878FBF6D817E818F8157
:100C300098850E94100B69A37AA38BA39CA30E94A2
:100C40003A010E943A0169877A878B879C870E94C4
:100C50003A016D877E871C010E943A016B8B7C8B69
:100C60008D8B9E8B0E943A016F8B788F898F9A8F24
:100C70000E943A016B8F7C8F8D8F9E8F2AE037ED1B
:100C800043E25CE36D837E839D8D9F83AE8DA88759
:100C90006D817E818F8198850E94160D6D837E8384
:100CA0008F8398876D817E818F8198850E94FF0C4C
:100CB0006DA37EA38FA398A70091430110914401D7
:100CC000B0914501BAA72091460129A7C0903F01E4
:100CD000D0904001E0904101F090420180913B01B1
:100CE00090913C01A0913D01B0913E018D839E8386
:100CF000AF83B887188A1F862F853889032E000C8A
:100D0000440B550B29833A834B835C83CA01B90199
:100D10000E94120B2DA13EA14FA158A569837A8391
:100D20008B839C8369817A818B819C810E940B0BD0
:100D300018160CF4FFC124EA30E74DE75FE3C982DF
:100D4000DA82EB82FC8269817A818B819C810E94AC
:100D5000710B20E030E040E85FE369837A838B83A6
:100D60009C8369817A818B819C810E94930C20E015
:100D700030E040EC5FE369837A838B839C836981F5
:100D80007A818B819C810E94FD0D4B015C0120E0EA
:100D900030E040E251E4C982DA82EB82FC82698170
:100DA0007A818B819C810E94710B9401A5016983DA
:100DB0007A838B839C8369817A818B819C810E9459
:100DC000160D5B018F8F98A320E030E040E05FE3D9
:100DD00009831A838AA58B8399A59C8369817A816B
:100DE0008B819C810E94FD0D698B7A8B2C012D8556
:100DF0003E85A101A985A983BA85BA838B858B839A
:100E00009C859C8369817A818B819C810E94930C53
:100E10003B014C0120E030E040E05FE3A989A98379
:100E2000BA89BA834B825C8269817A818B819C8189
:100E30000E94710B9B01AC0169827A828B829C8239
:100E400069817A818B819C810E94920C2AE037ED26
:100E500043E25CE369837A838B839C8369817A8133
:100E60008B819C810E94710B9B01AC0109831A83C9
:100E70008AA58B8399A59C8369817A818B819C81CA
:100E80000E94930C8B018AA799A720E030E0A9016A
:100E900069831A838B839C8369817A818B819C818E
:100EA0000E940B0B87FD41C120E030E040E850E498
:100EB00069817A818B819C810E94F80D181634F427
:100EC00000E010E020E82AA730E439A79601A70146
:100ED0008B8989839C899A83AD89AB83BE89BC83C6
:100EE00069817A818B819C810E94920C29853A8547
:100EF0004B855C8569837A838B839C8369817A8146
:100F00008B819C810E94710B98014AA559A5698328
:100F10007A838B839C8369817A818B819C810E94F7
:100F2000160D3B014C019601A7018F898983988D8D
:100F30009A83A98DAB83BA8DBC8369817A818B81B9
:100F40009C810E94920C2D853E85A10169837A8344
:100F50008B839C8369817A818B819C810E94710B38
:100F600098014AA559A569837A838B839C836981FB
:100F70007A818B819C810E94160D9B01AC01698254
:100F80007A828B829C8269817A818B819C810E948A
:100F9000930C95014F8D58A169837A838B839C8331
:100FA00069817A818B819C810E94920C2AE037EDC5
:100FB00043E25CE369837A838B839C8369817A81D2
:100FC0008B819C810E94710B9B01AC01C982DA82EA
:100FD000EB82FC8269817A818B819C810E94930CD7
:100FE0006B017C0120E030E0A9016983DA828B8308
:100FF000FC8269817A818B819C810E940B0B87FF27
:1010000004C0C12CD12CE12CF12C4D805E806F806E
:10101000788477FA709477F87094A30192018985A7
:1010200089839A859A83AB85AB83BC85BC836981B0
:101030007A818B819C810E94710B98014AA559A5E8
:1010400069837A838B839C8369817A818B819C817C
:101050000E94160D698B7A8B4C01A30192018D853C
:1010600089839E859A832B823C8269817A818B81D8
:101070009C810E94710B98014AA559A569837A83C6
:101080008B839C8369817A818B819C810E94160D60
:101090009B01AC01A989A983BA89BA838B829C82FE
:1010A00069817A818B819C810E94930C95014F8D7F
:1010B00058A169837A838B839C8369817A818B8130
:1010C0009C810E94930C2AE037ED43E25CE3698344
:1010D0007A838B839C8369817A818B819C810E9436
:1010E000710B9B01AC016D817E818F8198850E947F
:1010F000930CAB01BC014D835E836F83788720E046
:1011000030E0A9016D817E818F8198850E940B0B53
:1011100087FF04C01D821E821F8218862F85388992
:101120002F5F3F4F388B2F87E7CD00E010E01AA6E6
:1011300019A6CCCEC601D70180933F019093400100
:10114000A0934101B0934201C801AAA5B9A580931B
:10115000430190934401A0934501B09346018D81D2
:101160009E81AF81B88580933B0190933C01A09311
:101170003D01B0933E018FB7F89420914801309122
:10118000490140914A0150914B0129833A834B8395
:101190005C838FBF20E030E04AE754E48B8D8D8381
:1011A0009C8D9E83AD8DAF83BE8DB8876D817E8112
:1011B0008F8198850E94710B8B01898B9F87698134
:1011C0007A818B819C810E94100B29A13AA14BA1AD
:1011D0005CA16D837E838F8398876D817E818F81F3
:1011E00098850E94920C9B01AC010D831E83898916
:1011F0008F839F8598876D817E818F8198850E94DE
:10120000920C6B017C0120E030E0A9016D83DE824D
:101210008F83F8866D817E818F8198850E94F80D7D
:1012200087FD1BC16D817E818F8198850E94880D0D
:101230000E94DB020E94B30A24E030E040E050E06C
:101240000E942F0C9B01AC01225031094109510928
:101250002D833E834F835887CA01B9010E94120B28
:1012600020E030E040EA50E46D837E838F839887EE
:101270006D817E818F8198850E94160D209143019A
:101280003091440140914501509146016D837E8328
:101290008F8398876D817E818F8198850E94930CC2
:1012A00042E06D837E838F8398876D817E818F81FD
:1012B00098850E942E0386E20E9483020E94B30A50
:1012C00022E030E040E050E00E942F0CDC01CB0136
:1012D0000197A109B1098D839E83AF83B887BC01B3
:1012E000CD010E94120B20E030E040E85EE36D8308
:1012F0007E838F8398876D817E818F8198850E9400
:10130000710B20913F01309140014091410150917A
:1013100042016D837E838F8398876D817E818F816B
:1013200098850E94930C42E06D837E838F8398871B
:101330006D817E818F8198850E942E0386E20E94B6
:1013400083020E94B30A22E030E040E050E00E94B5
:101350002F0C9B01AC0121503109410951092D830A
:101360003E834F835887CA01B9010E94120B20E0C7
:1013700030E040EA50E46D837E838F8398876D81EF
:101380007E818F8198850E94160D20913B013091BE
:101390003C0140913D0150913E016D837E838F83DE
:1013A00098876D817E818F8198850E94930C42E0A1
:1013B0006D837E838F8398876D817E818F819885F1
:1013C0000E942E0386E20E94830242E039853D831B
:1013D0005A855E838B858F839C8598876D817E81FE
:1013E0008F8198850E942E0386E20E94830242E04C
:1013F000AD85AD83BE85BE832F8238866D817E81AB
:101400008F8198850E942E0386E20E94830242E02B
:101410002B892D833C893E835D895F838E898887F4
:101420006D817E818F8198850E942E0386E20E94C5
:10143000830242E09F899D83A88DAE83B98DBF83CF
:101440002A8D28876D817E818F8198850E942E0349
:1014500082E391E00E941C03CECB0D831E83A989F9
:10146000AF83BF85B887DECEECE4F1E01382128251
:1014700088EE93E0A0E0B0E084839583A683B783F1
:1014800088E091E09183808385EC90E09587848764
:1014900084EC90E09787868780EC90E0918B808B3E
:1014A00081EC90E0938B828B82EC90E0958B848B27
:1014B00086EC90E0978B868B118E128E138E148E95
:1014C0000895EE0FFF1F0590F491E02D09948F927F
:1014D0009F92AF92BF92CF92DF92EF92FF92CF9303
:1014E000DF93EC01688179818A819B8161157105A7
:1014F0008105910521F464E279ED8BE597E02DE11A
:1015000033EF41E050E00E942F0C49015A019B014A
:10151000AC01A7EAB1E40E944E0C6B017C01ACEE79
:10152000B4EFA50194010E945C0CC60ED71EE81E04
:10153000F91EF7FE06C081E0C81AD108E10880E86C
:10154000F80AC882D982EA82FB82C701B6019F7776
:10155000DF91CF91FF90EF90DF90CF90BF90AF9051
:101560009F908F9008958F929F92AF92BF92CF924B
:10157000DF92EF92FF9260910001709101018091E2
:10158000020190910301611571058105910521F416
:1015900064E279ED8BE597E02DE133EF41E050E037
:1015A0000E942F0C49015A019B01AC01A7EAB1E44A
:1015B0000E944E0C6B017C01ACEEB4EFA5019401CE
:1015C0000E945C0CC60ED71EE81EF91EF7FE06C070
:1015D00081E0C81AD108E10880E8F80AC092000149
:1015E000D0920101E0920201F0920301C701B6011D
:1015F0009F77FF90EF90DF90CF90BF90AF909F903C
:101600008F9008956093000170930101809302010F
:101610009093030108950E944D0B08F481E0089512
:10162000E89409C097FB3EF490958095709561957C
:101630007F4F8F4F9F4F9923A9F0F92F96E9BB2732
:101640009395F695879577956795B795F111F8CFAE
:10165000FAF4BB0F11F460FF1BC06F5F7F4F8F4F19
:101660009F4F16C0882311F096E911C0772321F00F
:101670009EE8872F762F05C0662371F096E8862FA7
:1016800070E060E02AF09A95660F771F881FDAF7FE
:10169000880F9695879597F90895990F0008550F2B
:1016A000AA0BE0E8FEEF16161706E807F907C0F0E8
:1016B00012161306E407F50798F0621B730B840BF0
:1016C000950B39F40A2661F0232B242B252B21F4CA
:1016D00008950A2609F4A140A6958FEF811D811D6A
:1016E00008950E94840B0C94F50B0E94E70B38F0D0
:1016F0000E94EE0B20F0952311F00C94DE0B0C945D
:10170000E40B11240C94290C0E94060C70F3959F95
:10171000C1F3950F50E0551F629FF001729FBB27E8
:10172000F00DB11D639FAA27F00DB11DAA1F649F84
:101730006627B00DA11D661F829F2227B00DA11D37
:10174000621F739FB00DA11D621F839FA00D611DBD
:10175000221F749F3327A00D611D231F849F600DDE
:10176000211D822F762F6A2F11249F5750409AF007
:10177000F1F088234AF0EE0FFF1FBB1F661F771F93
:10178000881F91505040A9F79E3F510580F00C945E
:10179000DE0B0C94290C5F3FE4F3983ED4F386955E
:1017A00077956795B795F795E7959F5FC1F7FE2BFE
:1017B000880F911D9695879597F9089597F99F67DA
:1017C00080E870E060E008959FEF80EC08950024C9
:1017D0000A941616170618060906089500240A9496
:1017E00012161306140605060895092E0394000C1C
:1017F00011F4882352F0BB0F40F4BF2B11F460FFAB
:1018000004C06F5F7F4F8F4F9F4F089557FD9058D3
:10181000440F551F59F05F3F71F04795880F97FBB4
:10182000991F61F09F3F79F087950895121613066E
:101830001406551FF2CF4695F1DF08C0161617069D
:101840001806991FF1CF86957105610508940895D2
:10185000E894BB2766277727CB0197F90895052ED3
:1018600097FB1EF400940E94460C57FD07D00E947F
:10187000610C07FC03D04EF40C94460C5095409537
:10188000309521953F4F4F4F5F4F0895909580952C
:10189000709561957F4F8F4F9F4F08950E94830CE5
:1018A000A59F900DB49F900DA49F800D911D1124B4
:1018B0000895B7FF0C944E0C0E944E0C821B930BA4
:1018C0000895A1E21A2EAA1BBB1BFD010DC0AA1F81
:1018D000BB1FEE1FFF1FA217B307E407F50720F099
:1018E000A21BB30BE40BF50B661F771F881F991F14
:1018F0001A9469F760957095809590959B01AC015D
:10190000BD01CF010895A29FB001B39FC001A39F65
:10191000700D811D1124911DB29F700D811D112428
:10192000911D08955058BB27AA270E94AA0C0C9419
:10193000F50B0E94E70B38F00E94EE0B20F039F413
:101940009F3F19F426F40C94E40B0EF4E095E7FBAA
:101950000C94DE0BE92F0E94060C58F3BA176207AD
:1019600073078407950720F079F4A6F50C94280CEA
:101970000EF4E0950B2EBA2FA02D0B01B9019001AA
:101980000C01CA01A0011124FF27591B99F0593FEE
:1019900050F4503E68F11A16F040A22F232F342F36
:1019A0004427585FF3CF469537952795A795F04084
:1019B0005395C9F77EF41F16BA0B620B730B840B99
:1019C000BAF09150A1F0FF0FBB1F661F771F881F51
:1019D000C2F70EC0BA0F621F731F841F48F48795A9
:1019E00077956795B795F7959E3F08F0B0CF93959B
:1019F000880F08F09927EE0F9795879508950E9414
:101A0000E00D90F09F3748F4911116F40C94290CD6
:101A100060E070E080E89FE3089526F01B16611DEA
:101A2000711D811D0C94B70D0C94D20D0E942A0DCE
:101A30000C94F50B0E94EE0B58F00E94E70B40F05F
:101A400029F45F3F29F00C94DE0B51110C94290C02
:101A50000C94E40B0E94060C68F39923B1F3552310
:101A600091F3951B550BBB27AA27621773078407B1
:101A700038F09F5F5F4F220F331F441FAA1FA9F347
:101A800035D00E2E3AF0E0E832D091505040E69535
:101A9000001CCAF72BD0FE2F29D0660F771F881F96
:101AA000BB1F261737074807AB07B0E809F0BB0B89
:101AB000802DBF01FF2793585F4F3AF09E3F51059D
:101AC00078F00C94DE0B0C94290C5F3FE4F3983E05
:101AD000D4F3869577956795B795F7959F5FC9F786
:101AE000880F911D9695879597F90895E1E0660F07
:101AF000771F881FBB1F621773078407BA0720F080
:101B0000621B730B840BBA0BEE1F88F7E0950895E8
:101B10000E940E0C88F09F5798F0B92F9927B75163
:101B2000B0F0E1F0660F771F881F991F1AF0BA9581
:101B3000C9F714C0B13091F00E94280CB1E00895AB
:101B40000C94280C672F782F8827B85F39F0B93F9D
:101B5000CCF3869577956795B395D9F73EF4909534
:101B60008095709561957F4F8F4F9F4F0895882383
:101B700071F4772321F09850872B762F07C06623C6
:101B800011F499270DC09051862B70E060E02AF087
:101B90009A95660F771F881FDAF7880F96958795B5
:101BA00097F908959F3F31F0915020F487957795EC
:101BB0006795B795880F911D9695879597F9089524
:101BC0000E940E0CA0F0BEE7B91788F4BB279F381F
:101BD00060F41616B11D672F782F8827985FF7CF0E
:101BE000869577956795B11D93959639C8F30895B5
:101BF0000E944D0B08F48FEF0895FA01EE0FFF1FBE
:101C0000309621053105A1F16115710561F4803827
:101C1000BFE39B0749F168949038810561F08038F3
:101C2000BFEF9B0741F099234AF5FF3FE1053105DE
:101C3000210519F1E8940894E795D901AA2329F41C
:101C4000AB2FBE2FF85FD0F310C0FF5F70F4A695E6
:101C5000E0F7F73950F019F0FF3A38F49F779F9387
:101C60000DD00F9007FC9058089546F00C94E40BAB
:101C700060E070E080E89FE308954FE79F775F930F
:101C80004F933F932F930E94FD0E2F913F914F91C1
:101C90005F910E94710B0C945A0E0E944D0B880BA1
:101CA000990B089529F416F00C94DE0B0C94280C73
:101CB0000C94E40B0E940E0CA8F39638A0F707F8DA
:101CC0000F92E8942BE33AEA48EB5FE70E94870B18
:101CD0000F920F920F924DB75EB70F920E94450F71
:101CE000E8E6F0E00E948C0E4F915F91EF91FF913A
:101CF000E595EE1FFF1F49F0FE57E0684427EE0F01
:101D0000441FFA95E1F74195550B0E94BF0E0F90C5
:101D100007FE0C94B30E0895DF93CF931F930F9398
:101D2000FF92EF92DF927B018C01689406C0DA2E5D
:101D3000EF010E94840BFE01E894A5912591359155
:101D400045915591A6F3EF010E94AA0CFE0197015F
:101D5000A801DA9469F7DF90EF90FF900F911F913F
:101D6000CF91DF9108959B01AC0160E070E080E8C5
:101D70009FE30C94160D0C94DE0B0C94D20D0E9474
:101D80000E0CD8F39923C9F3940F511DA3F391506E
:101D9000504094F059F0882332F0660F771F881F67
:101DA00091505040C1F79E3F51052CF7880F911D6F
:101DB0009695879597F908955F3FACF0983E9CF013
:101DC000BB27869577956795B79508F4B16093958D
:101DD000C1F7BB0F58F711F460FFE8CF6F5F7F4F7B
:101DE0008F4F9F4FE3CF0C94290C16F00C94D20D1B
:101DF0000C94E40B68940C94DE0B0E940E0CA8F378
:101E00009923C1F3AEF3DF93CF931F930F93FF9208
:101E1000C92FDD2788232AF02197660F771F881F97
:101E2000DAF720E030E040E85FEB9FE3883920F00C
:101E3000803E38F021968F770E94930CE0E9F0E025
:101E400004C00E94930CEDEBF0E00E948C0E8B011D
:101E5000BE01EC01FB2E6F5771097595771F880B3A
:101E6000990B0E94120B28E132E741E35FE30E94E5
:101E7000840BAF2D9801AE01FF900F911F91CF9170
:101E8000DF910E94AA0C0C94F50BFA01DC01AA0F59
:101E9000BB1F9B01AC01BF5728F4222733274427DF
:101EA000507820C0B75190F4AB2F00244695379559
:101EB0002795011CA395D2F3002071F0220F331F48
:101EC000441FB395DAF30ED00C94920C6130710577
:101ED000A0E88A07B94630F49B01AC016627772752
:101EE00088279078309621F0208331834283538372
:061EF0000895F894FFCFF5
:101EF60001000000000000003C02A000C9008802AA
:101F0600FC01D800EC006E616E00696E66006F76AB
:101F16006600496E697469616C697A696E672E2E0E
:061F26002E000D0A000070
:00000001FF
